:020000040800F2
:1000000000000120D56F0008654B0008674B000811
:10001000694B00086B4B00086D4B000800000000A6
:100020000000000000000000000000006F4B00080E
:10003000714B000800000000734B0008754B00086E
:10004000257000082570000825700008257000083C
:1000500025700008257000087D4B000825700008F9
:10006000257000082570000825700008257000081C
:10007000257000082570000825700008257000080C
:100080002570000825700008257000080000000099
:1000900000000000000000000000000025700008C3
:1000A00025700008257000082570000825700008DC
:1000B00025700008257000082570000825700008CC
:1000C00025700008257000082570000825700008BC
:1000D0002570000825700008257000080000000049
:1000E0002570000825700008257000080000000039
:1000F0000000000000000000000000002570000863
:100100000000000025700008257000082570000818
:1001100000000000000000000000000000000000DF
:10012000257000082570000825700008257000085B
:100130002570000800000000000000000000000022
:100140000000000000000000000000002570000812
:10015000257000082570000825700008257000082B
:100160002570000825700008000000000000000055
:10017000000000000000000000000000000000007F
:1001800000000000257000080000000000000000D2
:0401900025700008CE
:1001A000034613F8012B002AFBD1181A01387047B7
:1001B00001F0FF01102A2BDB10F0070F08D010F818
:1001C000013B013A8B422DD010F0070F42B3F6D11C
:1001D000F0B441EA012141EA014122F007047FF035
:1001E00000070023F0E80256083C85EA010586EA8C
:1001F000010685FA47F5A3FA87F586FA47F6A5FAC8
:1002000087F68EB9EED1F0BC01F0FF0102F00702D3
:1002100032B110F8013B013A83EA010313B1F8D17E
:100220000020704701387047002D06BF354603385F
:10023000073815F0010F07D1013015F4807F02BF98
:10024000013015F4C03F0130F0BC0138704700BFE9
:1002500053B94AB9002908BF00281CBF4FF0FF312D
:100260004FF0FF3000F00CB8ADF1080C6DE904CE92
:1002700007F0ABFBDDF804E0DDE9022304B07047D2
:10028000704700BF10B5054C237833B9044B13B148
:100290000448AFF300800123237010BDE400002068
:1002A00000000000847C000808B5034B1BB1034923
:1002B0000348AFF3008008BD00000000E800002004
:1002C000847C000872B6FEE710B594B008AC30220A
:1002D0000021204606F0EAFE0023039304930593D1
:1002E0000693079301931F4A116C41F080511164EA
:1002F000126C02F080520192019A02931A4A13681A
:1003000023F4404343F400431360136803F4404371
:100310000293029B012308934FF480330993022335
:100320000E934FF480020F920822109254221192E1
:10033000129304231393204604F0F2FD70B90F23A7
:1003400003930221049105904FF480520692079086
:1003500003A805F033F818B914B010BDFFF7B2FFC9
:10036000FFF7B0FF003802400070004008B505F00C
:100370009FFAFFF7A9FF04F0ABF804F043F904F08B
:1003800017FA04F0CBFA04F035FB04F099FB04F003
:100390002DFA00F085F900F0B8FA70B9084800F0BD
:1003A0000FFB0849084800F0D5FC084800F0FEFDA6
:1003B00003F072FD03F0CCFDFCE700F0B3FAEDE7CB
:1003C000F4050020F4040020480500209C050020CE
:1003D00000B587B04FF4C843ADF8143041F601536F
:1003E000ADF810300623ADF80C3032230093022311
:1003F00005AAA8210E4805F075FE10B1012007B02E
:1004000000BD32230093022304AAA821084805F066
:1004100069FE0028F2D132230093022303AAA82107
:10042000034805F05FFE0028E9D00120E7E700BFA0
:100430004805002000B587B0174B1B68ADF8143095
:100440001B0C8DF816300023ADF8103032230093CA
:10045000032305AA8021114805F044FE10B10120B4
:1004600007B000BD322302930223019304AB009333
:10047000012302468021094806F03EF80028EED10B
:100480009DF810309DF8110040EA032046F22753F2
:10049000C01A18BF0120E3E79C7C00084805002033
:1004A00010B594B014468DF80C008DF80D200DF1A8
:1004B0000E0006F02FFE32230093A31C03AA422154
:1004C000024805F00FFE14B010BD00BFF404002078
:1004D00070B596B00E4614468DF80F003223009387
:1004E00001230DF10F0242210D4805F0FBFD20B163
:1004F00001231D46284616B070BD32230093631CAD
:1005000005AA4221064805F099FE05460028EFD1CC
:1005100022460DF11501304606F0FCFDEAE700BF6A
:10052000F404002030B585B001900D4605F0E6F9E1
:1005300004460023039304220DEB02010820FFF779
:10054000AFFFA8B9042203A90820FFF7C1FF0246A4
:1005500070B9039B6BB1084A934209D0022005F0A1
:10056000D3F905F0CBF9001BA842EBD3032200E03E
:100570000122104605B030BD21434D4408B5014667
:1005800004220320FFF7A4FF08BD000070B586B069
:100590000023059305A8FFF7F1FF00286ED103465D
:1005A000059A37498A4203D0364B9A4203D0012339
:1005B000184606B070BD344B1A6816468DF80C20EC
:1005C000C2F307238DF80D30C2F307438DF80E30C8
:1005D000130E8DF80F3044238DF8103014238DF84E
:1005E0001130062203A90920FFF75AFF0028DED1A7
:1005F000C8212648FFF796FF0028D8D104460DE011
:100600004FF480731D46322300932B46204A224428
:100610004421204805F066FD60B92C44A6420ED95D
:10062000331BB3F5807FEBD8B3B2A2B29B1A9BB257
:100630001D46E8E7C8211848FFF774FFB7E74FF4F5
:100640007A711648FFF76EFF0028B0D105F056F911
:10065000044608E00A2005F057F905F04FF9001BA1
:10066000B0F5FA7FA3D205A8FFF788FF034600285C
:10067000F0D10599024A9142ECD199E7012397E71D
:1006800041505020505443483001010850424D73AE
:1006900030840008F404002050424D6550424D6300
:1006A000F8B50024264608E0104B03EBC4031F7185
:1006B0000FB10136F6B20134E4B2022C13D8002592
:1006C0000127012DF0D804EB4402094B03EB820310
:1006D0005B68984707460028E6D0142005F014F917
:1006E0000135EDB2EDE73046F8BD00BF0000002057
:1006F000E883000810B58CB014468DF80C000DF19D
:100700000D0006F007FD322300932346013303AAB0
:10071000AA21024805F0E6FC0CB010BD48050020F7
:1007200000B583B08DF80400000A8DF805000222A0
:1007300001A90020FFF7DEFF03B000BD10B582B0B5
:100740000446202201464020FFF7D4FF98B9034613
:10075000024603E0E15C0A440133DBB21F2BF9D906
:10076000D2438DF8072001220DF107016020FFF729
:10077000C1FF044618B10124204602B010BD642018
:1007800005F0C2F8F8E7000030B585B00D46144614
:100790008DF80F003223009301230DF10F02AA21DF
:1007A000074805F09FFC10B1012005B030BD322391
:1007B000009323462A46AA21014805F03FFDF4E7AD
:1007C0004805002010B582B00C46FFF7A9FF10B114
:1007D000012002B010BD022005F096F8022201A906
:1007E0000020FFF7D1FF0028F2D19DF804309DF8DA
:1007F000052043EA02232380EBE710B584B01446BA
:100800008DF807008DF8061000238DF80F300122B7
:100810000DF10F016120FFF76DFF10B1012004B051
:1008200010BD01220DF107013E20FFF763FF0028F4
:10083000F4D101220DF106013F20FFF75BFF0028F4
:10084000ECD1022005F060F8202221464020FFF77D
:100850009BFFE4E7F0B589B00446407800F01F053F
:10086000A3782B44202B04D901231F46384609B016
:10087000F0BD41096A462078FFF7BFFF0746002810
:10088000F2D16D4463681E46A47822461946284674
:1008900006F0FCFB0028E9D022463146284606F047
:1008A00039FC6846FFF74AFF0746DFE710B58AB014
:1008B0000023ADF82630044600B103700DF1260187
:1008C0000120FFF77FFF38B9BDF82630B3F5807FF0
:1008D00004D003200AB010BD0420FBE701AA0146A2
:1008E0003A20FFF78AFF0028F6D19DF80430442B08
:1008F00009D114B19DF8053023709DF80530012B06
:10090000E8D00220E6E70120E4E708B50020FFF781
:10091000CDFF0138C0B2012801D9002008BD012057
:10092000FCE7000030B583B00020ADF80600FFF70B
:10093000BDFF00283CD0431EDBB2012B2CD8022285
:100940000DF106010A20FFF71FFF28BBBDF8063096
:1009500032339BB2642B2ED840F21440FFF7E0FEF6
:10096000D0B9022004F0D0FF43F27260FFF7D8FE46
:100970000446054680B9022004F0C6FF2346022B38
:100980000FD80E481C4600EBC300FFF763FF18B9F1
:1009900023460133DBB2F2E702231D46284603B0AB
:1009A00030BD4120FFF7BCFEFA2004F0ADFFF5E7B3
:1009B00001231D46F2E703231D46EFE70C840008E0
:1009C00010B586B0134C20603C2106F080F92368F6
:1009D0001B685A6A104B1A800123104A13700024B6
:1009E0000F4A147001A901944C608C60CC600C61BA
:1009F00001934FF4441302930A4804F0ABFD2246DE
:100A00000521062004F008FF062004F015FF06B0BB
:100A100010BD00BF0C0100200801002018000020BC
:100A20000001002000080240074B1B681B685B6A3E
:100A30009BB2064A1088181A1380C0F3C03303FA19
:100A400080F040F3470070470C01002008010020AF
:100A5000012800D0704710B504F050FF0446012172
:100A60000A4804F067FE0A4B1B7883420CD0094BFE
:100A70001B68E31A322B07D9064B1C60044B187015
:100A800010B9054B01221A7010BD00BF00080240CA
:100A9000180000200401002000010020034B1878FA
:100AA00000B9704700221A700120FAE70001002007
:100AB00008B50121034804F03DFEB0FA80F040097A
:100AC00008BD00BF0008024030B585B00D46144691
:100AD0008DF80F003223009301230DF10F02AA219C
:100AE0000848006805F0FEFA10B1012005B030BDDD
:100AF0003223009323462A46AA210248006805F0C3
:100B00009DFBF3E71401002010B582B0022201A979
:100B10001046FFF7D9FF002840F002819DF804201D
:100B2000844B1A700124022201A90820FFF7CCFF90
:100B3000002840F0F7809DF804309DF8052043EA36
:100B400002237C4A5380022201A90A20FFF7BCFF3E
:100B5000002840F0E9809DF804309DF8052043EA24
:100B60000223744A9380022201A90C20FFF7ACFFF4
:100B7000002840F0DB809DF804309DF8052043EA12
:100B800002236D4AA2FB0323DB08A3F21113694A77
:100B9000D380022201A90620FFF796FF002840F02B
:100BA000C7809DF804309DF8052043EA0223C3F373
:100BB000402060490872C3F300224A72DB0B8B723B
:100BC0005C4BB3F90410002901DD01225A72594A25
:100BD000537AD37203B10223564A1373538801FB2D
:100BE00003F3564981FB0301DB17C3EBA113136128
:100BF000022201A91820FFF767FF38B99DF80430D9
:100C00009DF8052043EA02234D4A1380022201A9E0
:100C10001A20FFF759FF38B99DF804309DF80520D8
:100C200043EA0223474A1380424890F88C10B0F9F7
:100C3000042001F1080300EB43039A800131424B89
:100C4000A3FB01C35B09C3EB0313A1EB8303DBB27B
:100C500080F88C3013B9012180F88D10354B5B7A08
:100C600033B13A49097819B939480189013101810B
:100C700036490B702F4BB3F906303549B1F90A10DC
:100C80008B4201DD32494B81314BB3F90E309A4230
:100C900001DD2F4BDA812E4BB3F90C305B429A42C7
:100CA00003DA92B252422A4B9A8104F027FE234B78
:100CB000A3FB00308009264B5861022201A92A209B
:100CC000FFF702FF38B99DF804309DF8052043EA8C
:100CD00002231F4A1380022201A92E20FFF7F4FEEF
:100CE00018B99DF804201A4B9A70022201A910200D
:100CF000FFF7EAFE38B99DF804309DF8052043EA75
:100D00000223134A9380124B41F67862DA8004F092
:100D1000F5FD084BC3F8900083F8944002B010BD75
:100D2000002400E700240EE700241CE7002430E73D
:100D3000002445E7B4030020CDCCCCCCD34D6210C9
:100D400032010020300100208988888810010020AD
:100D50001801002010B50F4B186000240E4B1C70BA
:100D6000982221460D4806F0A1F940F2762221464C
:100D70000B4806F09BF90B4B1C605C600A4B1C6037
:100D80005C609C60DC601C615C61084B1C80084BF3
:100D90001C8010BD1401002010010020B4030020AD
:100DA0003C01002034010020180100203201002005
:100DB0003001002008B504F0A1FD064BD3F89030B7
:100DC000C01AB0F5FA7F01D2002008BDFFF79CFEE3
:100DD0000120FAE7B403002008B5FFF795FE08BD2F
:100DE00010B582B08DF807000D4C0022012120467D
:100DF00004F0A7FC01220221204604F0A2FC4FF0DF
:100E0000FF3301220DF107010648006805F0D3FD0C
:100E100001221146204604F094FC02B010BD00BF30
:100E2000000402404C04002010B582B08DF8070089
:100E30000D4C00220121204604F083FC00220221F7
:100E4000204604F07EFC4FF0FF3301220DF1070134
:100E50000648006805F0AFFD01221146204604F067
:100E600070FC02B010BD00BF000402404C04002022
:100E7000F8B504460F4616461D462A20FFF7D4FF54
:100E8000200AFFF7ADFFE0B2FFF7AAFF300AFFF735
:100E9000A7FFF0B2FFF7A4FF2B20FFF7C5FF380A2A
:100EA000FFF79EFFF8B2FFF79BFF280AFFF798FFB6
:100EB000E8B2FFF795FF2C20FFF7B6FFF8BD10B59D
:100EC0000B4614460246FFF7D3FF200AFFF788FFC0
:100ED000E0B2FFF785FF10BD70B582B0BDF81850C5
:100EE00012B11C4616460BB902B070BD024492B254
:100EF0000B449BB2013B013A9BB292B2FFF7B8FFA1
:100F00002B0A8DF807308DF80650144D0022012170
:100F1000284604F016FC01220221284604F011FCA8
:100F200004FB06F6002411E00D4D4FF0FF330122C3
:100F30000DF10701286805F03EFD4FF0FF33012257
:100F40000DF10601286805F036FD0134B442EBD3FB
:100F500001221146014804F0F4FBC5E700040240F9
:100F60004C04002000B583B000904FF4A073F02231
:100F700000210846FFF7B0FF03B000BD08B56428A4
:100F800009D9084B64221A7000224FF48071064878
:100F900004F0D7FB08BD034B187008B10022F4E73A
:100FA0000122F2E7190000200004024010B51C4B9A
:100FB00018601C4C00220421204604F0C2FB0A20C9
:100FC00004F0A2FC01220421204604F0BAFB7820A0
:100FD00004F09AFC0120FFF727FF962004F094FC10
:100FE0001120FFF721FF782004F08EFC3A20FFF754
:100FF0001BFF5520FFF7F4FE3620FFF715FF0020FA
:10100000FFF7EEFE2120FFF70FFF2920FFF70CFF6F
:10101000192004F079FC6420FFF7B0FF10BD00BF79
:101020004C04002000040240014B1878704700BFB8
:10103000190000202DE9F04F87B088469DF84050F8
:10104000BDF844C0BDF848E0A2F12001C9B25A2958
:1010500039D807469A461B680593203A9AF8051036
:1010600001FB02F94FF0000B5B46CB46CDF80CC0FC
:10107000CDF810E099461CE0049B04FB058109FBB8
:10108000057000932B462A4689B280B2FFF724FFF1
:101090000134E4B29AF80530A34206D926FA04F3E3
:1010A00013F0010FE8D0039BE7E709F101025FFAB3
:1010B00082F99AF804304B4505D90BEB0903059AE0
:1010C000D65C0024E6E707B0BDE8F08F2DE9F04FCD
:1010D00083B09B46BDF83030BDF834C0A2F1200883
:1010E0005FFA88F8B8F15A0F33D806460F46DBF896
:1010F00000909BF8052002FB08F84FF0000A5246CA
:10110000C2460093CDF804C0904618E0019AE11958
:1011100008EB060089B280B2FFF7D1FE0134E4B2D9
:101120009BF80530A34206D925FA04F313F0010F0A
:10113000ECD0009AEBE708F1010C5FFA8CF89BF811
:101140000430434505D90AEB080319F8035000247D
:10115000E6E703B0BDE8F08F2DE9F04784B09DF8D5
:101160003040BDF83480BDF83890C2B182460F4699
:101170001E4615469CB12A788AB10135CDF80890F3
:10118000CDF804800094334639465046FFF752FFAD
:10119000307900FB044050441FFA80FAEBE704B0BA
:1011A000BDE8F0872DE9F04780460F4616469A467F
:1011B000DDF82090002510E006FB0543E91904EB5B
:1011C000080039F8132089B280B2FFF778FE0134A5
:1011D000A4B2B442F0D30135ADB2554501D20024DA
:1011E000F7E7BDE8F0872DE9F04383B004460F46EA
:1011F0001E46BDF82890BDF82C8015466AB90FE050
:10120000CDF80480CDF80090334639462046FFF7EC
:101210005DFF3079204484B201352A78002AEFD16D
:1012200003B0BDE8F08300B583B000930123FFF75E
:1012300053FE03B000BD00B583B0009313460122F6
:10124000FFF74AFE03B000BD2DE9F04104460D460C
:1012500090461E46BDF818703B46FFF7E4FFA919FB
:1012600089B201393B46424689B22046FFF7DBFF8F
:101270003B46324629462046FFF7DDFF04EB0800D7
:1012800080B201383B463246294680B2FFF7D3FF91
:10129000BDE8F0812DE9F04F85B005460E461746B2
:1012A0000393BDF838A0824237D9A2EB00090FFAA8
:1012B00089F9039BB34235D9A6EB03080FFA88F8E6
:1012C000AF4235D901230193039BB34234D90123A3
:1012D00002931FFA89FB1FFA88F300930BEB0304B8
:1012E00024B2524631462846FFF7E9FDBD4227D0D9
:1012F000A2B253001BB2984506DC00990A4414B20E
:10130000019A15FA82F5ADB29945EADB5C4424B244
:10131000029B16FA83F6B6B2E3E7A0EB02090FFAD6
:1013200089F9C6E7039BA3EB06080FFA88F8C7E71D
:101330004FF0FF330193C7E74FF0FF330293C8E745
:10134000039B9E42D4D105B0BDE8F08F2DE9F04F4C
:1013500083B0044689461D46BDF83060BDF8347040
:1013600000EB060A1FFA8AFA4FEA46081FFA88F8C5
:101370000192A2EB080B1FFA8BFB3B465A465046E4
:10138000FFF751FF09EB050189B201393B465A4687
:1013900089B25046FFF747FF4E44B6B2A5EB0805A9
:1013A000ADB23B462A4631462046FFF744FF019B3B
:1013B000E01880B201383B462A46314680B2FFF73A
:1013C0003AFF03B0BDE8F08F2DE9F04782B0054643
:1013D0000C4616469946BDF82870BDF82C804FEA99
:1013E000470A1FFA8AFAA3EB0A033944CDF80080B2
:1013F0009BB289B2FFF770FD3D44ADB2A6EB0A0681
:10140000B6B2CDF800803B46324621462846FFF76B
:1014100063FD04EB090189B2C91BCDF800803B468E
:10142000324689B22846FFF757FD02B0BDE8F08783
:101430002DE9F04F85B083468A461D4613B20293CC
:101440005200C2F1030213B203930023019308E098
:10145000A3009BB2134406331BB20393013423B29F
:101460000193019B029A934259DCBDF8044004EBBE
:101470000B091FFA89F9BDF8086006EB0A081FFA84
:1014800088F82A4641464846FFF719FDABEB0407AA
:10149000BFB22A4641463846FFF711FDAAEB0608BF
:1014A0001FFA88F82A4641464846FFF708FD2A46B3
:1014B00041463846FFF703FD06EB0B091FFA89F991
:1014C00004EB0A081FFA88F82A4641464846FFF707
:1014D000F6FCABEB0607BFB22A4641463846FFF79B
:1014E000EEFCAAEB04081FFA88F82A464146484653
:1014F000FFF7E5FC2A4641463846FFF7E0FC039A31
:10150000002AA5DB019B029A9B1A039A02EB830334
:101510000A331BB20393013E33B202939EE705B038
:10152000BDE8F08F08B501F017FA08BD2DE9F041CC
:1015300082B09DF82070043084B204318DB2103A2C
:1015400092B2083B1FFA83F802FB07F60D4BA3FB90
:101550000636C6F34F1644F2082300934346294645
:101560002046FFF7B9FC16B902B0BDE8F081384655
:10157000FFF7D8FF00904346324629462046FFF742
:10158000ABFCF1E71F85EB512DE9F04383B0054635
:101590000E4617469846A2F10804A4B24CF2186908
:1015A000CDF80490042200922246FFF7CFFEA8F166
:1015B0000203A7F10A02711C681CCDF804904FF0D9
:1015C000030CCDF800C09BB292B289B280B2FFF793
:1015D000BDFE2C44A4B206EB580189B2083901348F
:1015E000CDF800901023052289B2A0B2FFF774FC59
:1015F0009DF82830009343463A4631462846FFF787
:1016000095FF03B0BDE8F0832DE9F04F89B003905A
:10161000049105929DF84C709DF850B0BDF954802E
:10162000BDF958A0BDF85C20002F4AD09946C245AC
:1016300047D0AAEB08030693002601230293314604
:101640003046079223E0059A551E06FB05F57A1EE3
:10165000B5FBF2F5039A12FA85F5ADB2049A02EBE6
:101660000904A4B2A3EB080309F1FF3202FB03F360
:10167000069AB3FBF2F3E41AA4B2013CA4B2029BB3
:10168000C3B1002302930136F6B221462846BE427A
:1016900017D20BEB060393FBF7F207FB1233DBB217
:1016A000129A32F913309A4500DA53464345CADAA2
:1016B0004346C8E7079B009323462A46FFF7EAFD07
:1016C000E1E709B0BDE8F08F2DE9F04F87B0814622
:1016D000824688468B4617461E46BDF94C40BDF9EA
:1016E0005050BDF858C0CDF800C0FFF7F5FB002CF6
:1016F0001EDB48F21043009333463A4659465046A3
:10170000FFF7A2FDBDF854300593049503949DF8AE
:10171000483002939DF844300193109B0093334668
:101720003A4659465046FFF76FFF07B0BDE8F08FC5
:10173000002DDEDD2B1B314605FB01F1B1FBF3F182
:1017400018FA81F144F208233A4689B24846FFF775
:101750006AFDCEE72DE9F04F83B005460C469B4667
:101760009DF8303083B3531EDBB2012B03D912B383
:101770004FF6604601E04FF4FC66072A1ED0042AAB
:101780001FD0082A3CD0092A20D14FF478462B1DBF
:101790009BB21F4600960623032221463846FFF7D8
:1017A0009BFB04F1080100960223032289B238460C
:1017B000FFF792FB7CE04FF6FF76E0E740F2FF7622
:1017C000DFE74FF47846DEE744F20826092A6FD8AF
:1017D00001A353F822F000BF071800081D180008E5
:1017E000611800089118000891180008D118000825
:1017F000E5180008F9180008911800088F1700086C
:1018000040F2FF76E2E7611C019602230093062373
:101810000A2289B22846FFF799FD49E0AB1D98B22C
:101820000746AB1C9AB2631D9BB200969A4691463E
:101830002146FFF72FFD231D99B2009688460B46DF
:101840003A4651464846FFF725FD04F10803EA1CD5
:1018500000969BB292B241463846FFF71BFD27E047
:101860002B1D9AB21746E31D9BB2211D681C0096E2
:10187000984689B280B2FFF70DFD631C05F109029D
:1018800000969BB292B241463846FFF703FD0FE047
:10189000281D33460622214680B2FFF7CCFCA11D4D
:1018A000E81C009603231A4689B280B2FFF714FBA6
:1018B000611C05F10E0040F6410301930096234B95
:1018C0005A4689B280B2FFF78EFC03B0BDE8F08FB4
:1018D000A11CA81C009606231A4689B280B2FFF705
:1018E000FBFAE5E7A11CA81C009606231A4689B25C
:1018F00080B2FFF7A9FCDBE72B1D9BB21F463346E6
:10190000062221463846FFF796FC6B1D9BB218460F
:101910003346062221468146FFF78DFC231D99B2EE
:1019200004F108039BB2681C009698463A460F469D
:1019300080B2FFF7AFFC05F10800009643464A4627
:10194000394680B2FFF7A6FCB2E700BF3C010108B0
:101950002DE9F04385B080460F4614461D469DF89C
:1019600034600C98FEF71CFCC0EBC0001FFA80FC32
:101970000CF1FF3C1FFA8CFCA4452CD2A4EB0C0C00
:101980000CEBDC7CCCF34F0CC4441FFA8CF399466F
:10199000082D23D9A5F1080303EBD373C3F34F0339
:1019A0003B449BB20393DEB14FF66046019604239D
:1019B00000932B46224639464046FFF705FD019627
:1019C00000230093114B0C9A03994846FFF70BFC38
:1019D00005B0BDE8F0834FF0000CD5E70023DFE74A
:1019E00044F208260196042300932B4622463946EA
:1019F0004046FFF7E9FC01964FF6FF730093034B57
:101A00000C9A03994846FFF7EEFBE1E73401010821
:101A100070B582B004469DF81C00082B1FD9A3F1B5
:101A2000080C0CEBDC7CCCF34F0C8C441FFA8CF5CF
:101A30002E46B8B14FF6604601960420009020462D
:101A4000FFF7C2FC04F10800019600230093104B3D
:101A5000069A294680B2FFF7C6FB02B070BD4FF070
:101A6000000CE2E744F2082501950420009020468E
:101A7000FFF7AAFC04F1080001954FF6FF730093ED
:101A8000034B069A314680B2FFF7ADFBE5E700BF96
:101A900034010108002802DB4FF4FC60704740F27B
:101AA000FF70704740F6E933984206D940F6B143DB
:101AB000984205D94FF6FF7070474FF47840704751
:101AC0004FF62050704700EB400300EB83035B00B0
:101AD000022804D912229818363080B270470022AA
:101AE000F9E70000124B4CF25C729A80002218E079
:101AF00002EB021102EBC1010E4880FB01300844E9
:101B0000CB17C3EB60234FF4617000FB1313A3F5F5
:101B10006253243B02F10800054901EB40018B8030
:101B200001323B2AE4DD024B00225A72704700BFAB
:101B3000B4030020C5B3A2912DE9F04184B08046E2
:101B40000F4616461D4640F64104009410236C22B1
:101B5000FFF7C2F90294019502230093044B324629
:101B600039464046FFF7F8FA04B0BDE8F08100BFFF
:101B70003C010108F0B587B0054640F68813009394
:101B80001E23F0224FF491710020FFF7A5F9164AA9
:101B900003AB07CA03C31A80002411E04FF6604765
:101BA00006AB03EB440333F80C6C3B46042240F2D3
:101BB00031113046FFF73CFCAC4208D00134E4B2AE
:101BC000042C0ED8AC42E9D048F21047E8E7B01E2A
:101BD000009705231A4640F22F1180B2FFF77CF9D7
:101BE000ECE707B0F0BD00BFA07C000870B588B07E
:101BF000044600EBC00500EB450505F1BA01C0EB5A
:101C000080123D4B03EB420393F87D30002B65D0EF
:101C10003A4B03EBC0039E8800960A231A461846E7
:101C2000FFF75AF9BB35354B53F83420C4EB841118
:101C3000314B03EB410393F87D30002B51D04FF62D
:101C4000FF7340F64101019100932D4B29461A2064
:101C5000FFF7C9FAC4EB8412274B03EB420393F856
:101C60007D30002B40D0244B03EB420133F812208F
:101C7000B1F90200234BA3FB0213990901904FF421
:101C80007A7000FB112292B21F49A1FB0212520985
:101C900000929B091D4A182102A805F0C5F940F6DB
:101CA000410300930823682229468220FFF714F994
:101CB000C4EB8414104B03EB440393F87D300BB951
:101CC00048F2104640F64103019300960C4B02AADD
:101CD00029468220FFF787FA08B070BD44F2082633
:101CE0009AE748F21043ACE7094B0A4A182102A8C8
:101CF00005F09AF9D3E700BF3C0100200C0501086C
:101D00003C010108D34D62101F85EB51D87C0008BF
:101D1000E87C0008F07C000808B5034BB3F90A30F2
:101D2000024A05F081F908BD18010020F87C00087E
:101D300000B583B00C4B5B690C4AA2FB03EC4FEA85
:101D40005C1CDFF830E0AEFB03E3A2FB0CE25209BF
:101D5000C2EB0212ACEB82020092DB0A044A05F0ED
:101D600063F903B000BD00BF18010020898888888E
:101D7000007D0008C5B3A29100B583B00B4BD3F82A
:101D800010C00B4BA3FB0C239A094FF47A7E0EFB79
:101D900012C2DFF824C0ACFB02C2520900929B09B8
:101DA000044A05F041F903B000BD00BF180100204E
:101DB000D34D62100C7D00081F85EB5108B5034B15
:101DC000B3F90E30024A05F02FF908BD18010020C2
:101DD000187D000808B5034BB3F90C30024A05F032
:101DE00023F908BD18010020187D000808B5034B31
:101DF0001B89034A05F018F908BD00BF180100202F
:101E0000207D000800B583B0044BDA8800929B88DF
:101E1000034A05F009F903B000BD00BF1801002016
:101E2000247D000808B5034B9B78034A05F0FCF8B5
:101E300008BD00BF18010020307D000808B5034B25
:101E40001B88034A05F0F0F808BD00BF1801002008
:101E5000207D000800B583B00A4BA3FB02C34FEA04
:101E6000931C4FF47A7E0EFB1C2292B2DFF81CC04A
:101E7000ACFB02C2520900929B09034A05F0D4F858
:101E800003B000BDD34D6210387D00081F85EB51B3
:101E900010B586B040F6410300938223DC222C214A
:101EA0000A20FFF719F848F2104300938223DC223E
:101EB0002C210A20FFF7C8F9002401E00134E4B224
:101EC000042C28D8C4EB8412144B03EB420393F880
:101ED0007D30002BF2D01346104A02EB430304334B
:101EE0000F4901EBC4018988059140F6B83104918E
:101EF00000210391C4EB841102EB410292F87C2093
:101F000002923C22019200938023DA222D210B20A1
:101F1000FFF77AFBD2E706B010BD00BF3C010020FE
:101F20000C05010830B58DB04C4B1A784C4B33F88A
:101F300012304BB94B4B03934B4B1B7853B14B4B6C
:101F40001B7843B34A4D06E04A4A082103A805F02E
:101F50006BF8F1E7464DFFF767F805AC0090464B8C
:101F60002A461C21204605F05FF8404B1B78B3FA47
:101F700083F35B09019300942423DC2219460A2091
:101F8000FFF746FD384B1B783BB1384B1B78012BD4
:101F900060D03A4A02E03A4DDDE7384A05AD03AB7E
:101FA0000093384B1C21284605F03EF82F4C23782F
:101FB000012B14BF00230123019300952423DC226D
:101FC0004E210A20FFF724FD2378022B14BF0023A3
:101FD000012301932C4B00932423DC2278210A2037
:101FE000FFF716FD2378032B14BF00230123019371
:101FF000264B00932423DC22A2210A20FFF708FDB0
:102000002378042B14BF002301230193204B00935A
:102010002423DC22CC210A20FFF7FAFC40F68813A7
:1020200000931E23F0224FF491710020FEF754FF1D
:102030000D4B1B7883B1174A40F68813019348F281
:1020400010430093144B40F22D110A20FFF7CBF8F8
:102050000DB030BD114AA1E7114AEDE77D00002027
:10206000980401084F666600770400207804002079
:10207000507D00089C7D0008A07D0008687D000858
:10208000407D0008AC7D0008B87D0008C47D0008D4
:10209000D07D0008747D00083C0101085C7D0008CB
:1020A0008C7D000810B582B0002416E0174B53F861
:1020B000342004EB04114900243189B2144B1B78FD
:1020C000A34214BF00230123019300921E23DC22AC
:1020D0000A20FFF79DFC0134E4B2062CE6D940F655
:1020E000881400941E23F0224FF491710020FEF713
:1020F000F3FE019448F210430093064B064A40F267
:102100002D110A20FFF76FF802B010BD600401081E
:10211000760400203C010108D87D000808B5FEF7D0
:102120005BFE08BD08B5034B4822DA8002F0C4F913
:1021300008BD00BFB403002008B5034B4FF6F8728A
:10214000DA8002F0B9F908BDB403002008B50C4BE1
:1021500042F618625A8003221A704FF650329A8063
:10216000002305E0074A40F6863122F813100133B8
:10217000032BF7DD024B00225A7202F09DF908BDD5
:10218000B40300203401002008B50C4B43F2D40204
:102190005A800C221A704FF67C429A80002305E088
:1021A000074A40F6354122F813100133032BF7DDBF
:1021B000024B00225A7202F07FF908BDB4030020DE
:1021C0003401002010B582B00E4C2378B3FA83F3AB
:1021D0005B0901930C4B009322235A22C82119203A
:1021E000FFF7B6FB2378012B14BF002301230193D3
:1021F000064B009322235A22C8217D20FFF7A8FB1B
:1022000002B010BD7C000020F07D0008F47D0008C5
:102210002DE9F0478AB06F4BB3F9FA21002A08DBA9
:102220006D4B9B7B3BB16C49498A91420ADD00268C
:1022300002E00022F4E71E46F6B22BB17EB16649F9
:102240004F8A02E00126F7E71F466BB14EB1624BA1
:102250001D8A5B8A03FB05F595FBF2F505E0174641
:10226000F3E75D4B1D8A00E01D4605FB07F45B4B61
:1022700083FB0423E417C4EBA31440F6410300934B
:102280004FF48173F02220210020FEF725FE524BEF
:102290009B7B1BB15EB1DFF85C8101E0DFF8588108
:1022A00043B1002E00F08F804FF6205904E0DFF894
:1022B0004C81F5E744F20829CDF8049004230093FB
:1022C000162334222621B220FFF77EF84046FDF780
:1022D00067FFC0EBC000C0F134004008DFF810A178
:1022E000B230CDF8049000230093534642462D218E
:1022F00080B2FEF778FF40F64103019348F21043A5
:1023000000935346364A2D210A20FEF76CFF334BCB
:1023100083FB0523E817C0EBA3124FF47A7101FB8E
:102320001252304981FB0251D217C2EBA102009236
:10233000C0EBA3132C4A182104A804F075FE264B09
:102340009B7B002B42D04FF6FF73DFF8A48004ADD7
:1023500040F64109CDF808900193042300934346C9
:102360002A464A211820FEF7F7FECDF8089048F2D9
:10237000104301930223009343461C4A5221B2208A
:10238000FEF7EAFE154B83FB0723F817C0EBA312F9
:102390004FF47A7101FB1272124981FB0271D2175C
:1023A000C2EBA1020092C0EBA3130F4A18212846EA
:1023B00004F03AFE084B9B7B13B3002E00F03081F3
:1023C0004FF620531EE04FF4FC6975E744F20823F2
:1023D000BBE700BF3C0100201C000020D34D621071
:1023E0003C7E000867666666547E0008208100080F
:1023F0003C010108047E0008007E0008FC7D000806
:1024000044F20823A84E04AD40F641070297019319
:102410000423009333462A4672211820FEF79CFEBF
:10242000029748F2104301930223009333469F4AD8
:102430007A21B220FEF790FE9D4B83FB0423E01728
:10244000C0EBA3124FF47A7101FB1242994981FB50
:102450000241D217C2EB61120092C0EBA313964A5D
:102460001821284604F0E0FD944B9B7B002B00F0E4
:10247000DA804FF6E07340F64102029201930223A4
:102480000093894B04AA9C211820FEF765FE44F2B4
:102490000823DC22BA210A20FEF7C5FE884B1B78F0
:1024A00023B1884B1B78012B00F0C080834B1A8A24
:1024B0007F4BA3FB021399094FF47A7000FB1122A2
:1024C00092B27C49A1FB0212520900929B097E4AFA
:1024D000182104A804F0A8FD7A4B1B78012B00F00A
:1024E000BC804CF2186340F64102019200936E4B9F
:1024F000764AC4210A20FEF776FE724B1B78012B28
:1025000000F0AE804FF6FF7340F641020292019355
:1025100002230093644B04AAD0210A20FEF71CFE7C
:10252000674B1B7823B1674B1B78022B00F09B8015
:10253000624B5A8A5E4BA3FB021399094FF47A70DF
:1025400000FB112292B25B49A1FB021252090092D8
:102550009B095F4A182104A804F066FD594B1B78BB
:10256000022B00F097804CF2186340F64102019272
:1025700000934D4B574AC4218220FEF734FE514B45
:102580001B78022B00F089804FF6FF7340F6410262
:102590000292019302230093434B04AAD02182208C
:1025A000FEF7DAFD454B9B7B002B79D04A4A454C20
:1025B0002378B3FA83F35B09019300922223692203
:1025C000F2210A20FFF7C4F92378032B14BF00235C
:1025D00001230193414B009322236922F2217D20A4
:1025E000FFF7B6F940F6881300931E23F0224FF44C
:1025F00091710020FEF770FC314B1B78002B51D0FD
:10260000374A40F68813019348F210430093264B53
:1026100040F22D110A20FEF7E6FD0AB0BDE8F08772
:1026200040F2FF73EEE644F2082324E7234B1A8AB4
:102630001F4BA3FB021399094FF47A7000FB112280
:1026400092B21C49A1FB0212520900929B09254A31
:10265000182104A804F0E8FC3EE74FF6604342E787
:102660004FF6604350E7154B5A8A114BA3FB0213F8
:1026700099094FF47A7000FB112292B20D49A1FB27
:102680000212520900929B09174A182104A804F06B
:10269000CBFC63E74FF6604367E74FF6604375E7AF
:1026A000124A84E7124AACE73C0101081C7D00088D
:1026B000D34D62101F85EB51607E00081C00002086
:1026C00071040020720400207C7E0008847E0008D3
:1026D000987E0008A07E0008087E0008D07D0008D3
:1026E000747D0008707E00088C7E0008147E00084F
:1026F000207E000830B58DB06F4B1C78002C00F0A8
:10270000A98004EB44026D4B03EBC2039B7B002BBF
:1027100000F0A3806A4B04AD00936A4B6A4A202103
:10272000284604F081FC694B1B78B3FA83F35B09FC
:10273000019300952E23DC2228210A20FFF768F957
:1027400004EB44025D4B03EBC2031A8A08210DEB34
:102750000100FFF77FFB5E4B1B781BB15B4B1B78C7
:10276000012B7CD004EB4402544B03EBC2035B68A7
:1027700002AA0092574A202104A804F055FC534BAA
:102780001B78012B14BF00230123019304AB00939A
:102790002E23DC225A210A20FFF73AF94C4B1B78F2
:1027A0001BB14A4B1B78022B67D004EB4404434B0C
:1027B00003EBC4035B8A484AA2FB031292094FF45D
:1027C0007A7101FB12339BB24449A1FB03135B09ED
:1027D00001930092424B434A202104A804F024FCB8
:1027E0003A4C2378022B14BF00230123019304AB3E
:1027F00000932E23DC228C210A20FFF709F923788D
:10280000032B14BF002301230193374B00932E2386
:10281000DC22BE210A20FFF7FBF844F208230093D4
:102820001E23F0224FF491710020FEF755FB284B38
:102830001B78002B3DD02D4A44F20823019348F227
:10284000104300932A4B40F22D110A20FEF7CBFCD7
:102850000DB030BDFFF7DCFCFAE7264B5BE704EB7D
:102860004402164B03EBC2035B6802AA0092224AA1
:102870002021284604F0D8FB81E704EB44040F4BE9
:1028800003EBC4035B8A144AA2FB031292094FF4C0
:102890007A7101FB12339BB21049A1FB03135B0950
:1028A000019300920E4B154A202104A804F0BCFBB2
:1028B00096E7134AC0E700BF730400201C00002005
:1028C000A87E0008AC7E0008B47E000872040020D8
:1028D00071040020687D0008D34D62101F85EB5104
:1028E000C07E0008DC7E0008D07D0008747D0008F2
:1028F0003C010108007E00085C7D0008CC7E0008D9
:102900008C7D000810B5044600EB4002114B03EB30
:10291000C2039B7B73B90F4B04EB440103EBC10172
:102920008A7B0B46003A18BF01228989986802F019
:1029300008FF10BDB0FA80F35B09064903EB4300C2
:1029400001EBC000002282738189806802F0F9FEE9
:10295000E1E700BF1C000020042804D90E2805D997
:102960004FF4FC6070474FF4784070474FF62050AA
:1029700070473B2806DC2C2807DC092808DD4FF6C9
:10298000FF7070474FF4784070474FF62050704703
:1029900040F2FF7070470A3880B2322894BF00209E
:1029A0000120704708B542F6DF6398420AD943F226
:1029B000C723984214D943F2AF63984213D94FF416
:1029C000FC6008BD02F09AFF084BA3FB003010F03A
:1029D000200F02D04FF47840F3E744F20820F0E7EC
:1029E0004FF47840EDE74FF62050EAE7D34D621000
:1029F00042F6DF63984205D943F2C723984203D9D0
:102A000000207047022070470120704700B583B056
:102A100040F6881300931423582204219620FEF7D1
:102A20005BFA334BB3F906302C2B1ADC092B21DD72
:102A30002F4B5888FFF7DCFF022824D02C4BDB7A81
:102A4000002B31D12A4B1B7A002B36D1284B5B7AD5
:102A5000002B3BD1264BB3F90430002B3EDB03B0F7
:102A600000BD01230093234B04220A21AA20FEF774
:102A700071FEDDE7012300931E4B08220A21AA20E4
:102A8000FEF768FED4E702F039FF1B4BA3FB0030D2
:102A900010F0200FD2D001230093164B09220A21F7
:102AA0009B20FEF757FEC9E701230093114B00223C
:102AB0000A21C820FEF74EFEC4E7012300930D4B08
:102AC00002220A21B920FEF745FEC8E70122009242
:102AD000084B0A21B920FEF73DFEC0E70123009311
:102AE000044B07220A21B920FEF734FEB7E700BFE6
:102AF000B4030020CC7F0008D34D621030B583B002
:102B0000054640F6881400941E23F0220021084652
:102B1000FEF7E2F94FF66043F0221C210020FEF799
:102B200082FB4FF66043F0221D210020FEF77BFB65
:102B300001944FF6FF730093044B2A460A210820A4
:102B4000FEF751FBFFF762FF03B030BD340101080F
:102B50002DE9F04385B040F64100FEF703FA434B00
:102B60000093652368222A214420FEF71BFB404C7A
:102B7000404E40F64105029548F280230193032719
:102B8000009723463246A3211B20FEF7E5FA029563
:102B90004FF66048CDF80480009723463246A021C6
:102BA0001820FEF7D9FADFF8E490029544F20826DF
:102BB0000196009723464A46C3214920FEF7CCFAE6
:102BC00002954FF6FF730193009723464A46C021B2
:102BD0004620FEF7C1FA019548F2104700972346B8
:102BE000254AE8214E20FEF7FEFA4346802298212E
:102BF0001820FEF718FB434660229A211820FEF7A2
:102C000012FB3B468022F6215820FEF70CFB3B4688
:102C10006022F8217820FEF706FB02950197022337
:102C200000932346154A06210846FEF795FA0195BA
:102C300000962346124A4FF485713620FEF7D3FAE8
:102C40000195009623460F4A4FF48B712120FEF721
:102C5000CAFA0195009623460B4A4FF491713C2025
:102C6000FEF7C1FA05B0BDE8F08300BF3C050108DE
:102C70003C010108EC7E0008FC7E00080C7F000887
:102C8000147F00082C7F00084C7F0008F47E0008A9
:102C90002DE9F04190B0674C237800932E238A22CF
:102CA0002A210A20FEF742FC09AD2378624A062158
:102CB000284604F0B9F940F6410600961A2350223E
:102CC00034219C20FEF708F92078FFF745FE029694
:102CD000019003230093594B2A4634219C20FEF790
:102CE0003BFA637A002B00F09C80554B1C8840F621
:102CF000410300930823502252219C20FEF7ECF858
:102D0000631E9BB241F26E72934225D84D4BA3FBDA
:102D100004235A091346C2EB0212A4EB8204A4B2A4
:102D2000444A527A002A7FD0474A01920094474A87
:102D300014210BA804F078F93E4B5B7A002B75D078
:102D40004FF4FC6340F64102019200933B4B0BAA07
:102D500052219C20FEF747FA364C62883C4BA3FB7D
:102D6000021399090BAE4FF47A7000FB112292B254
:102D70003849A1FB0212D20800929B09364A14215D
:102D8000304604F051F940F64105009510236E22BB
:102D900011460A20FEF7A0F86088FFF703FE274FD0
:102DA000029501904FF00208CDF800803B46324674
:102DB0006E210A20FEF7D0F9B4F90430274A142115
:102DC000304604F031F9009510236E22114682201E
:102DD000FEF782F8B4F90400FEF75CFE029501905C
:102DE000CDF800803B4632466E218220FEF7B4F9D2
:102DF000069540F2FF73059343F698230493184B0E
:102E0000039394F88C3002933C2301931434009480
:102E10006423DC2299210A20FEF756FC10B0BDE89D
:102E2000F081104B1C8862E70F4A7EE74CF2186372
:102E300088E700BFB4030020307D00083C01010892
:102E40003001002089888888647F0008747F00082A
:102E5000D34D6210CDCCCCCC807F00088C7F000895
:102E600068C5FFFF320100206C7F000870B582B09A
:102E700040F64100FEF776F81C48FFF73FFE1C4B7A
:102E80001B7800932E238A222A210A20FEF77CFB3E
:102E9000184C40F6410501954CF218660096234601
:102EA000154A62210A20FEF79EF9019500962346F5
:102EB000124A62218220FEF796F944F20823DC22AE
:102EC00094210A20FEF7AFF9019548F210430093D0
:102ED00023460B4A89210A20FEF785F90020FEF7D8
:102EE00049FEFFF7D5FE02B070BD00BF947F000819
:102EF000B40300203C01010878820008A47F000888
:102F0000AC7F00082DE9F0438DB0684D06AC2B78FE
:102F1000674A1421204604F087F82878FFF71CFD43
:102F20000346224636210A20FEF706FE6A88614BD8
:102F3000A3FB021399094FF47A7000FB112292B29D
:102F40005D49A1FB0212D20800929B095B4A142141
:102F5000204604F069F86888FFF724FD03462246FE
:102F600036217D20FEF7E8FDB5F90430544A1421DE
:102F7000204604F059F8B5F90400FEF78BFD03462E
:102F8000224681210A20FEF7D7FD2B694D4A1421E4
:102F9000204604F049F84FF6E073224681217D2057
:102FA000FEF7CAFDB5F90630474A1421204604F061
:102FB0003BF8B5F90600FFF7DCFC03462246CC21BE
:102FC0000A20FEF7B9FD00254EE005EB450404EBB1
:102FD000C4046400A4B21034A4B23C4F37F81520E6
:102FE000344BA3FB0213990906AE4FF47A7000FB31
:102FF000112292B23049A1FB0212D20800929B0921
:10300000334A1421304604F00FF805F131038DF8EE
:103010002C3000238DF82D30DFF8C09040F64108A9
:10302000CDF8048048F2104300934B460BAAFA21D6
:103030002046FEF7D8F8CDF8008008231E224FF472
:1030400084712046FDF748FF37F81500FEF72AFD8A
:10305000CDF8048000904B4632464FF484712046F0
:10306000FEF7C1F80135EDB2032DAED902AC194B14
:103070000FCB84E80F000D4BDB7A93B10B4A127B28
:1030800002F003020CA901EB820252F8282C53B182
:103090004FF4FC63CC217D20FEF74EFD0DB0BDE862
:1030A000F0830D4AF3E748F21043F3E7B40300203E
:1030B000C87F0008D34D6210CDCCCCCC807F0008F7
:1030C0008C7F0008D07F0008F87C000834010020C5
:1030D000D87F0008AC7C0008BC7F00083C010108D8
:1030E00070B582B040F64100FDF73CFF3248FFF773
:1030F00005FD324C40F6410601964CF218650095EC
:1031000023462F4A28210A20FEF76DF801960095E4
:1031100023462C4A28217D20FEF765F8019600956C
:103120002346294A73210A20FEF75DF8019600958F
:103130002346264A73217D20FEF755F80196009517
:103140002346234ABE210A20FEF74DF8019600953A
:103150002346204ABE217D20FEF745F844F208238D
:10316000C82223217820FEF766F844F20823DC22E7
:103170006E210A20FEF757F844F20823DC22B92119
:103180000A20FEF750F844F2082300932823DC229B
:10319000F2210A20FEF758F80196009523460E4AC0
:1031A000EE211220FEF71FF80120FEF7E3FCFFF7E7
:1031B000A9FE02B070BD00BFE07F00083C0101081D
:1031C000E87F000878820008A47F0008F07F0008EC
:1031D000F87F0008F47E00080080000870B58CB00D
:1031E0001D4B1A781D4B33F9122093B240F641055E
:1031F000069540F2FF71059104925B421BB2039366
:10320000174C94F88C3002933C23019304F114037F
:103210000093DC23CC2232211F20FEF755FA08AEA2
:10322000B4F904300F4A1021304603F0FDFE00953A
:1032300010235A2223218C20FDF74EFEB4F90400FE
:10324000FEF728FC01950090074B324623218C2085
:10325000FDF7C9FF0CB070BD7E00002034050108E9
:10326000B403002008800008340101082DE9F0476C
:1032700084B040F64100FDF775FE2848FFF73EFC9C
:10328000DFF8B090DFF8B0A09AF8003039F91330C9
:10329000234D85FB0312DB17C3EBA21302AC1BB259
:1032A000204A0821204603F0BFFE1F4E40F6410889
:1032B000CDF8048048F21047009733462246322169
:1032C0000520FDF790FF9AF8003039F9133085FB9F
:1032D0000325DB17C3EBA5131BB2144A08212046B4
:1032E00003F0A2FECDF804800097334622464FF447
:1032F00083710520FDF777FFCDF8048000973346F2
:103300000B4A40F213113720FDF76DFF0220FEF744
:1033100031FCFFF763FF04B0BDE8F08710800008C0
:10332000D34D6210208000083C010108288000086D
:1033300030800008340501087E00002008B50649E9
:103340000A780132054B83FB020303EB4303D31AD4
:103350000B70FFF78BFF08BD7E00002056555555BA
:1033600070B582B040F64100FDF7FCFD1348FFF751
:10337000C5FB134C40F64106019648F210450095F6
:103380002346104A22210A20FDF72DFF01960095C1
:1033900023460D4AB021A020FDF725FFFEF778FD5A
:1033A000002404E02046FEF721FC0134E4B2042CA2
:1033B000F8D90320FEF7DEFB02B070BD4C80000898
:1033C0003C0101085C8000086080000810B5FEF731
:1033D0005FFD002404E02046FEF708FC0134E4B25F
:1033E000042CF8D910BD00002DE9F04188B000246C
:1033F00012E040F6410500950823562231469620FA
:10340000FDF76AFD01950097144B03AA31469620FB
:10341000FDF7E9FE0134E4B2082C1CD82046FEF783
:1034200052FB06460E4F650004EB440307EB830393
:10343000D3F80480142103A8C047254407EB85076F
:103440003F89084B9845D4D1074BB3F90A00FFF7E1
:1034500090FA0746CDE708B0BDE8F0813C010108CD
:10346000A0040108191D00081801002030B583B020
:1034700040F64100FDF776FD2448FFF73FFB40F69C
:10348000410301934FF660430093214B214A2621CB
:103490000A20FDF7A8FE002411E004EB440140F6E9
:1034A000410301934CF218630093194B1A4A52F8E6
:1034B000212029460A20FDF796FE0134E4B2082CAB
:1034C0001DD82046FEF7FFFA0546032CE5D1A0F1F2
:1034D0000E0144F20823DC2289B20A20FDF7A3FE84
:1034E000A5F10A0140F6410301934FF660430093B2
:1034F000074B0A4A89B20A20FDF775FECDE7FFF7B0
:1035000073FF0420FEF736FB03B030BD6C8000086B
:103510003C0101087C800008A0040108908000089C
:10352000044B1A78044B33F812304EF6602003FB3C
:1035300000F070477D000020980401080023024A33
:103540001370024A1370704778040020770400203B
:1035500008B540F64100FDF705FD0348FFF7CEFA38
:10356000FEF7E0FC08BD00BF9880000810B50446D7
:10357000224B1B7813B1224A1278C2B11BB1204BE7
:103580001B78012B25D01E4B1A78002C33DD01232C
:103590001A441C4981FB0231D317C3EB610303EBCF
:1035A0008303D31A164A1370FEF7BCFC10BDFDF757
:1035B0003BFD04EB840300EB4300092803DD642892
:1035C00005DCC0B200E00A20FDF7D8FCECE764207F
:1035D000FAE70D4B1B78002C0BDD012213445A42F5
:1035E00003F0030302F0030258BF5342064A13706C
:1035F000DAE70322F2E70423CAE700BF77040020DA
:1036000078040020676666667D000020014B00227A
:103610001A7070477604002008B540F64100FDF7A7
:10362000A1FC0348FFF76AFAFEF73CFD08BD00BFA6
:10363000A080000808B50B4B1A78002810DD012384
:103640001A44094BA3FB0213D11A03EB51039B0845
:10365000C3EBC303D31A034A1370FEF723FD08BD5F
:103660000623EDE7760400202549922400B583B0B7
:103670000E4B1A780E4B03EBC2035B688BB1984775
:103680000A4B197801EB0111490001230193094B01
:1036900000931E23DC2224310A20FEF759F903B0DF
:1036A00000BD062000F00EFCF9E700BF7604002004
:1036B00060040108AC800008024B1870024B012224
:1036C0001A707047750400207C00002008B5124B6A
:1036D0001B7843B9114B1B78042B0FD8DFE803F09C
:1036E00009090F1218000C4B00221A70FEF71AFC81
:1036F00004E0094B01221A70FEF714FC08BD00F02B
:10370000EDFBFBE70120FFF7D7FF00F00BFCF5E72F
:10371000062000F0D7FBF1E77704002078040020B2
:10372000014B1878704700BF7504002030B585B094
:1037300040F64100FDF716FC254C2278254B53F846
:1037400022502846FCF72CFDC0EBC0004000C0F121
:10375000F00040F6410302934FF6604301930223C9
:1037600000931D4B2A465A21C0F34F00FDF7F4FC8D
:103770002378BBB940F6410401944FF6FF750095DC
:10378000154B164A8C211E20FDF72DFD0194009546
:10379000114B134A98214B20FDF725FDFEF712FD32
:1037A00005B030BD40F6410401944FF6FF75009519
:1037B000094B0C4A8C211B20FDF715FD0194009547
:1037C000054B094A98213020FDF70DFDE6E700BFC3
:1037D00075040020580401083C010108B480000869
:1037E000D0800008E0800008FC80000808B5044A8A
:1037F000137883F001031370FEF7E4FC08BD00BFEB
:103800007C000020034B1B780BB90120704702207D
:10381000704700BF7C000020014B1870704700BF4C
:10382000740400202DE9F0418AB0674B1F78022F05
:1038300007D04FF6205640F64100FDF793FB0024D9
:1038400022E04FF47846F6E704F13408C4F1940519
:10385000ADB200962B4604F1440241467820FDF7B4
:1038600019FDC4F1AC0200962B4692B24146782075
:10387000FDF710FD04F1920100960B46AA224620A6
:10388000FDF708FD0134E4B2022CDDD94F4D40F6BE
:103890004108CDF808800196052300932B464C4A39
:1038A0005A216D20FDF758FC3B014A4AD458204666
:1038B000FCF776FCC0EBC0004000C0F1F000CDF892
:1038C00008800196022300932B462246A821C0F3CC
:1038D0004F00FDF741FC002401E00134E4B2022C6A
:1038E00022D804EB87023B4B03EB82035D682B7805
:1038F000002BF2D02846FCF753FC00EB40004000C0
:10390000C0F1F00004EB44018900C83189B240F6EF
:10391000410301934FF6FF7300932C4B2A46C0F3EB
:103920004F00FDF760FCD8E7274B1B7833BB2A4DCF
:1039300004ACB5F90630294A1821204603F074FB7F
:10394000B5F90600FFF715F840F641030293019020
:10395000022300931D4B2246F0216020FDF7FCFB63
:10396000012301931E4B00931E2350224FF48871B4
:103970001046FDF7EDFF0AB0BDE8F081164B5A88FE
:10398000184BA3FB0213990904AC4FF47A7000FBA7
:10399000112292B21449A1FB0212D20800929B0993
:1039A000124A1821204603F03FFB40F641030293E0
:1039B0004FF47843019302230093044B2246F021F5
:1039C0005520FDF7C9FBCBE7740400203C0101083A
:1039D0001481000828040108B4030020F87C0008C2
:1039E000F07D0008D34D6210CDCCCCCC18810008FE
:1039F00008B50020FDF7B6FA08BD0000F0B585B0A7
:103A00000446104E470000EB400306EBC3031A8A3E
:103A100008210DEB0100FEF71DFA0B4D05EB041517
:103A2000274406EBC706B37B53B1084B02AA0092AA
:103A3000074A1021284603F0F7FA284605B0F0BDE2
:103A4000044BF3E71C00002050040020A87E00086F
:103A500024810008007E0008012800D90020044BC2
:103A600018700023034A1370034A1370704700BF95
:103A700073040020720400207104002010B582B08D
:103A800040F64100FDF76EFA0D4C237803EB43033B
:103A90000C4A52F83300FFF731F823781BB9FEF7D0
:103AA00029FE02B010BD40F64103019348F21043D5
:103AB0000093054B054A16210A20FDF794FBEEE71B
:103AC000730400201C0000203C0101082C81000828
:103AD00008B5034B1B7803B108BDFEF799FBFBE764
:103AE0007304002008B5414B1B78414A1278002A24
:103AF00068D0844682B2911C89B2042903D902EBB2
:103B000082020FFA82FC3B4A1278022A14D0B3BB1D
:103B100003EB4301384A02EBC102128A642101FB24
:103B20000C2240F6B7318A4220DD44F620618A42F9
:103B30001EDD44F620621BE003EB43012E4A02EB3C
:103B4000C102528A642101FB0C22632A06DD40F681
:103B5000B8318A4203DD40F6B83200E0642203EB5C
:103B60004303254901EBC3035A823AE040F6B832D9
:103B700003EB4303204901EBC3031A8231E003EB5B
:103B800043011D4A02EBC102127D002808DD01211C
:103B90000A4452B2002A05DB042A04DD042202E0B2
:103BA000FF21F5E70022144903EB430001EBC000BD
:103BB0000275124830F8122003EB430301EBC301F6
:103BC0000A820EE00B4B1B7890420DDD012213445C
:103BD0005A4203F0030302F0030258BF5342054A5E
:103BE0001370FEF787FD08BD0322F0E77304002081
:103BF00071040020720400201C0000201C04010835
:103C000008B5174B1878174B1B78BBB9164B1B78A8
:103C1000022B19D8F3B9B3B9144B00EB400203EBF4
:103C2000C202927B00EB400103EBC10382F0010270
:103C30009A73FEF767FEFFF721FF04E0094B0022AD
:103C40001A70FEF757FD08BD032BFCD1062000F0CB
:103C500039F9F8E7034B01221A70FEF74BFDF2E742
:103C60007304002071040020720400201C00002056
:103C7000144B187028B310B500240DE0124B04EB60
:103C8000440103EB810100228A720B4609895868BE
:103C900001F057FD0134E4B2012CEFD900240DE00E
:103CA0000A4B04EB440103EBC10100228A730B466B
:103CB0008989986801F045FD0134E4B2012CEFD9FF
:103CC00010BD7047700400204C0000201C00002034
:103CD000014B1878704700BF70040020F0B58BB01E
:103CE0000646072814BF0023012301933D4B009390
:103CF00020236422FA218220FDF72AFE00242EE0F0
:103D00002746394B04EB440203EB820153F822307F
:103D10008A7A002A40D0354A0092354A202102A8EA
:103D200003F082F9304B07EB470103EB81018A7AFC
:103D30000B46003A18BF01220989586801F001FDBD
:103D4000B44214BF00230123019302AB0093182354
:103D5000DC2229460A20FDF75BFE0134E4B2062C82
:103D60003ED8C4EBC405AD00ADB22435ADB2012CD4
:103D7000C6D9032C12D804EB44031B4A52F8237013
:103D8000A01EC0B2FFF73AFE00903B46194A202120
:103D900002A803F049F9D3E7174ABDE7042C07D07E
:103DA000052C13D0154B02AF0FCB07C73B70C7E7ED
:103DB000134B1B7843B10D4B0093124B0C4A20213F
:103DC00002A803F031F9BBE70B4BF5E7FDF72CF93F
:103DD00000900D4B0D4A202102A803F025F9AFE712
:103DE0000BB0F0BD4C8100084C000020A87E0008FC
:103DF000B47E000854810008007E00088481000819
:103E000070040020608100086C8100087481000843
:103E100030B583B0054640F64100FDF7A3F80E48E3
:103E2000FEF76CFE40F6881400941E23F0224FF437
:103E300091710020FDF750F8019448F2104300936F
:103E4000064B074A40F22D110A20FDF7CCF928460F
:103E5000FFF744FF03B030BD948100083C01010826
:103E6000A0810008032811D8094B00EB400203EBA6
:103E70008202927A00EB400003EB800382F00101A2
:103E80009972012A02D0034B00221A70704700BFBA
:103E90004C0000207004002008B5084B00221A7066
:103EA0005A70012199705A609A601A73FEF750FE99
:103EB00001F024FD024B186008BD00BF9C040020E7
:103EC000840400200C2805D8034B1A785A70187007
:103ED00001229A70704700BF9C04002008B5084B6F
:103EE00000221A70074B1A78931FDBB2042B01D8FB
:103EF000054B1A78054B1A700C20FFF7E3FF08BD3D
:103F0000880400209C0400208800002085000020F8
:103F100008B5FFF7E3FF024B01221A7008BD00BF8E
:103F20008804002008B5044B1A78044B1A700A2044
:103F3000FFF7C8FF08BD00BF9C04002086000020DA
:103F400008B5024B1878FFF7BDFF08BD88000020B8
:103F5000F8B501F0D3FC04467E4B1B7893B97E4B39
:103F60001B68C31A7D4A1268934200D2F8BD7C4C8C
:103F70002078FFF7A7FF01232370784B40F2DC5233
:103F80001A60F3E7FCF750FD0546FCF787FD06468F
:103F9000704B1B780C2B25D00DB900283CD0714BF1
:103FA0001C60FFF7BDFA58B16E4B1B68E31A8342E1
:103FB00006D3684B1B781BB10B2B01D00A2B30D1D9
:103FC000644B1B780BB10B2B30D1FCF771FD002833
:103FD0006FD0604B9B68002B56D15E4B9C600022DB
:103FE0001A7369E00028C1D05F4B1B787BB10020B9
:103FF0005D4B18705D4B1A78594B1A70574B4FF444
:1040000096621A60544B1C60FFF75CFFAEE7574B9B
:104010001878FFF757FFA9E7FCF74AFD0028C0D042
:10402000BDE7504B1C60FFF759FF9FE7504B588886
:10403000FEF7DEFC074602280ED0012F1FD04D4BA5
:104040001B781F46002BC0D1494BB3F90600FEF781
:10405000A2FC0028B9D003E0464B9B78002BECD1A2
:10406000454B1F703846FFF7D7FB3A4B1A78434B46
:104070001A70434B1C600B20FFF724FFA5E73D4B54
:104080005B78002BECD0DAE7324A127BA2B9E31A54
:10409000B3F57A7F10D32F4B01221A731A78931F2E
:1040A000DBB2012B08D9374B1A700620FFF70AFF45
:1040B00002E0284B98601873FEB1264B1B7BE3B9D6
:1040C000314B1B78A3B1314B1B68E31AB3F5C87FA2
:1040D0000ED82D4B00221A701E4B1B78062B0CD0CD
:1040E000072B01D0274A13700620FFF7EBFE04E0F0
:1040F000254B01221A70254B1C60234B1B781E4652
:1041000023B1144B9B68CBB100231E46114B1B7B84
:1041100013B11D4B00221A700E4B1B78013B0A2B6A
:104120003AD8DFE813F035006500710082008E0098
:104130009A00F60001010C0117013D01134B1B68A9
:10414000E31AB3F5C87FDFD90F4B00221A700123A1
:104150001E46DBE79C040020840400208000002031
:1041600084000020900400208804002085000020A6
:10417000B40300209804002094040020870000204D
:104180008C04002088000020800400207C04002093
:10419000002D25DC002D27DBFCF70CFE9F4B5B6818
:1041A000E31AF92B7FF6E2AE9C4B5C609B78002B08
:1041B00000F04B81994B00229A701B780C2B3FF634
:1041C000D5AEDFE813F00C010F0112011501180143
:1041D0001B011E0122012501280139013C013F017B
:1041E0000220FFF76FFED5E70520FFF76BFED3E750
:1041F000002D05DC002DCFDA0120FFF763FECBE7B1
:104200000320FFF75FFEF5E7002D06DC002D08DB3D
:10421000002EC1D0FFF792F8BEE70420FFF752FE50
:10422000F4E70220FFF74EFEF2E7002D05DC002D3B
:10423000B2DA0320FFF746FEAEE70520FFF742FEA5
:10424000F5E7002D05DC002DA6DA0420FFF73AFE85
:10425000A2E70120FFF736FEF5E7002D0DDC002D6B
:104260001ADB002E98D06E4B1878072894D8DFE818
:1042700000F0222229293141474D69490B78013349
:104280005A4203F0070302F0070258BF5342D8B264
:104290000870FFF723FDE4E761490B7807335A42C2
:1042A00003F0070302F0070258BF5342D8B2087068
:1042B000FFF714FDD5E7FFF7D5FD594B1878FFF749
:1042C0000DFD69E70238C0B2FFF7C6FB0720FFF714
:1042D000F9FD61E7FFF7FCFC20B9FFF7EDF9FFF707
:1042E00021FE59E70020FFF7C3FC4D4B1878FFF77C
:1042F000F5FC51E7FFF722F90820FFF7E3FD4BE754
:10430000FFF784F90920FFF7DDFD45E7FFF718FE09
:1043100042E72DB9002E3FF43FAFFFF771FC3BE7BA
:104320002846FFF7DFFBF5E72DB9002E3FF434AF49
:10433000FFF7CCF930E72846FFF718F9F5E72DB974
:10434000002E3FF429AFFFF791F925E72846FFF744
:1043500071F9F5E75DB9002E3FF41EAFFFF752FA91
:10436000012808D02F4B1878FFF7ACFD14E728463A
:10437000FFF73CFAEFE7FFF7D3F938B90120FFF771
:1043800077FC284B1878FFF79DFD05E7254B18783B
:10439000FFF798FD0120FFF76BFCFFF7B9FDFBE687
:1043A0003EB9214B1B68E31A47F22F5293427FF626
:1043B000F3AE1E4B1B781E4A0121D154022B04D0B0
:1043C0001C4B1878FFF77EFDE6E61A4B1878FFF7CE
:1043D00079FD0120FFF74CFCFFF79AFDDCE6FEF7C4
:1043E000B7FBC3E5FEF742FDC0E5FEF779FEBDE58C
:1043F000FEF73CFFBAE5FEF7B3FFB7E5FFF736F887
:10440000B4E50020FFF704FDB0E5FFF737FBADE5AD
:10441000FFF79EF8AAE5FFF7FFF8A7E59C04002048
:1044200079040020860000208C04002094040020E1
:104430009804002087000020FFF778F996E5FFF741
:10444000F1F993E5FFF7D4FA90E51A4B1B781BB10D
:104450000A3BDBB2022B17D8164B1B78013B062B0D
:104460003FF684AD01A252F823F000BF8F4400084C
:10447000954400089B440008A1440008AD4400088E
:104480006D3F0008A7440008FEF7C0FAE4E7FEF716
:10449000FFFB6BE5FEF736FD68E5FEF79FFE65E581
:1044A000FEF794FF62E5FFF713FB5FE5FEF79CFF65
:1044B0005CE500BF9C040020002304E0034A0021C7
:1044C000D1540133DBB2022BF8D970479804002095
:1044D0002DE9F0438BB005AD0024059406940794B4
:1044E000089409940194434B1A6B42F004021A6336
:1044F0001A6B02F004020192019A02941A6B42F0C4
:1045000080021A631A6B02F080020292029A0394EC
:104510001A6B42F001021A631A6B02F00102039255
:10452000039A04941A6B42F002021A631B6B03F0A5
:1045300002030493049BDFF8C48001224FF400516E
:10454000404601F0FEF8224640F60601404601F0E2
:10455000F8F8294E01220521304601F0F2F82246F2
:1045600048F20211304601F0ECF8DFF89490224650
:104570004FF4C051484601F0E4F842F606030593B3
:1045800001270697079408942946404600F0E2FF69
:1045900041F209030593069407942946404600F02A
:1045A000D9FF0323059306970794089329463046BD
:1045B00000F0D0FF48F2041305930697079408947F
:1045C0002946304600F0C6FF4FF4C04305930694D9
:1045D00007942946304600F0BDFF4FF4C0530593C1
:1045E0000697079408942946484600F0B3FF0BB09D
:1045F000BDE8F08300380240000402400008024099
:104600000000024000B585B000230093019302939F
:1046100003934048404A02604FF480324260836016
:1046200001220261037680F82030C3623B49816237
:10463000C3600821C16180F83030426100F05AFB4C
:1046400000284CD1002300930123019307230293F8
:104650006946304800F07AFB002843D101230093DB
:104660000223019369462B4800F070FB00283CD1DF
:1046700002230093032301936946264800F066FB5A
:10468000002835D103230093042301936946214870
:1046900000F05CFB78BB042300930523019369467B
:1046A0001C4800F053FB48BB062300930193694666
:1046B000184800F04BFB20BB072300930193694689
:1046C000144800F043FBF8B90E230093082301932C
:1046D0006946104800F03AFBC8B905B000BDFBF7C9
:1046E000F1FDAFE7FBF7EEFDB8E7FBF7EBFDBFE74A
:1046F000FBF7E8FDC6E7FBF7E5FDCCE7FBF7E2FDDE
:10470000D2E7FBF7DFFDD7E7FBF7DCFDDCE7FBF7E4
:10471000D9FDE2E7AC040020002001400100000FB9
:1047200030B589B000230393049305930693079350
:10473000026803F1804303F590339A4201D009B037
:1047400030BD0024009403F58C335A6C42F480721F
:104750005A645A6C02F480720092009A01941A6BA7
:1047600042F001021A631A6B02F001020192019AEF
:1047700002941A6B42F004021A631B6B03F00403E9
:104780000293029BDF2303930325049503A90648A4
:1047900000F0E0FE102303930495059403A9034859
:1047A00000F0D8FECBE700BF000002400008024046
:1047B00008B50B480B4B03600B4B43600023836031
:1047C000C3604FF48042026143618361C36103624D
:1047D00001F09EFB00B908BDFBF774FDFBE700BFCD
:1047E0004805002000540040801A060008B50B4818
:1047F0000B4B03600B4B436000238360C3604FF49B
:104800008042026143618361C361036201F080FB06
:1048100000B908BDFBF756FDFBE700BFF40400201C
:10482000005C0040A0860100F0B58BB0002305932A
:1048300006930793089309930368324A934204D07E
:10484000314A934224D00BB0F0BD002500952F4C87
:10485000236B43F002032363236B03F002030093F3
:10486000009BC0230593122306930323089304237C
:10487000099305A9264800F06DFE0195236C43F4C9
:1048800000132364236C03F400130193019BDAE704
:10489000002502951D4C236B43F004032363236B17
:1048A00003F004030293029B0395236B43F001037F
:1048B0002363236B03F001030393039B4FF4007303
:1048C000059312260696032708970423099305A942
:1048D000104800F03FFE4FF480730593069607954D
:1048E00008970423099305A90B4800F033FE0495AB
:1048F000236C43F400032364236C03F40003049348
:10490000049BA0E700540040005C004000380240D7
:1049100000040240000802400000024008B50D48B3
:104920000D4B03604FF48273436000238360C360C8
:10493000036143614FF400728261C36103624362A9
:1049400083620A23C36201F0D7FF00B908BDFBF7F9
:10495000B9FCFBE79C05002000300140F0B589B0B0
:1049600000230393049305930693079302681E4B59
:104970009A4201D009B0F0BD0024009403F58433BD
:104980005A6C42F480525A645A6C02F4805200927B
:10499000009A01941A6B42F001021A631A6B02F03A
:1049A00001020192019A02941A6B42F002021A6308
:1049B0001B6B03F002030293029B20250395022642
:1049C0000496032706970523079303A9074800F0D9
:1049D000C1FD03950496059406970523079303A943
:1049E000034800F0B7FDC5E7003001400000024079
:1049F0000004024010B58CB003AC242200212046F4
:104A000002F054FB0023019302931148114A026003
:104A1000436083604FF6FF72C260036183610123CC
:104A2000039305930993214602F0E8F848B900235F
:104A30000193029301A9064802F0A6F920B90CB02F
:104A400010BDFBF73FFCF2E7FBF73CFCF7E700BFCC
:104A5000F40500200004004000B589B00023039352
:104A600004930593069307930268134B9A4201D06F
:104A700009B000BD0021019103F50D331A6C42F01D
:104A800002021A641A6C02F002020192019A029167
:104A90001A6B42F004021A631B6B03F004030293C7
:104AA000029BC023039302230493079303A90348A3
:104AB00000F050FDDCE700BF0004004000080240A9
:104AC00008B50A480A4B03604FF4E1334360002302
:104AD0008360C36003610C2242618361C36102F0A1
:104AE00019FA00B908BDFBF7EDFBFBE73C06002017
:104AF0000010014000B589B000230393049305938F
:104B000006930793026803F1804303F588339A42C2
:104B100001D009B000BD0021019103F594335A6C16
:104B200042F010025A645A6C02F010020192019A8B
:104B300002911A6B42F001021A631B6B03F001032E
:104B40000293029B4FF4C063039302230493032355
:104B500006930723079303A9014800F0FBFCD8E75D
:104B600000000240FEE7FEE7FEE7FEE7FEE77047D3
:104B70007047704708B500F0B5FE08BD08B50120C4
:104B800000F0E6FD08BD000082B0002100910B4B53
:104B90005A6C42F480425A645A6C02F48042009289
:104BA000009A01911A6C42F080521A641B6C03F057
:104BB00080530193019B02B0704700BF0038024050
:104BC0004A4B5A6822F440325A605A6841680A4394
:104BD0005A600268536823F4807353600268536814
:104BE000016943EA012353600268536823F040736C
:104BF00053600268536881680B435360026893688E
:104C000023F40063936002689368C1680B43936068
:104C1000826A374B9A4257D00268936823F07063D8
:104C2000936002689368816A0B439360026893689B
:104C300023F04053936002689368C16A0B4393600A
:104C40000268936823F00203936002689368017E10
:104C500043EA4103936090F82030002B3FD0026874
:104C6000536843F4006353600268536823F460435D
:104C7000536001684B68426A013A43EA42334B6031
:104C80000268D36A23F47003D3620168CB6AC269F5
:104C9000013A43EA0253CB620268936823F400733B
:104CA00093600268936890F8301043EA4123936060
:104CB0000268936823F48063936002689368416993
:104CC00043EA8123936070470268936823F070631E
:104CD00093600268936823F040539360B0E70268E2
:104CE000536823F400635360CAE700BF0023014008
:104CF0000100000F38B310B50446036C43B1236CB8
:104D000013F0100F0BD00120002384F83C3010BDAD
:104D1000FFF706FD0023636484F83C30EFE7236C63
:104D200023F4885323F0020343F002032364204654
:104D3000FFF746FF00206064236C23F0030343F079
:104D400001032364E0E701207047000010B582B042
:104D50000022019290F83C20012A00F0D7800346FF
:104D6000012280F83C200A68092A4BD9D0F800E0DB
:104D7000DEF80C0092B20A3A02EB42024FF0070C46
:104D80000CFA02F220EA0202CEF80C20D3F800C09E
:104D9000DCF80C000A880A3A02EB42028C6804FA3A
:104DA00002F20243CCF80C204A68062A47D8D3F80E
:104DB00000E0DEF83400013A02EB82024FF01F0CF3
:104DC0000CFA02F220EA0202CEF83420D3F800E016
:104DD000DEF83400B1F800C04A68013A02EB820202
:104DE0000CFA02F20243CEF834201868484A904286
:104DF00065D01868464A90426AD0002083F83C008B
:104E000002B010BDD0F800E0DEF8100092B202EB64
:104E100042024FF0070C0CFA02F220EA0202CEF82E
:104E20001020D3F800C0DCF810000A8802EB420220
:104E30008C6804FA02F20243CCF81020B4E70C2A82
:104E40001ED8D3F800E0DEF83000073A02EB820209
:104E50004FF01F0C0CFA02F220EA0202CEF83020CA
:104E6000D3F800E0DEF83000B1F800C04A68073A35
:104E700002EB82020CFA02F20243CEF83020B4E7D1
:104E8000D3F800E0DEF82C000D3A02EB82024FF07E
:104E90001F0C0CFA02F220EA0202CEF82C20D3F802
:104EA00000E0DEF82C00B1F800C04A680D3A02EBD1
:104EB00082020CFA02F20243CEF82C2095E70A682F
:104EC000122A96D11348426842F48002426090E769
:104ED0000A68103A012A90D80E48426842F400024B
:104EE00042600A68102A88D10B4A12680B49A1FB5C
:104EF0000212920C02EB82025200019202E0019A2D
:104F0000013A0192019A002AF9D176E7022077E767
:104F100000200140002301409000002083DE1B435D
:104F2000002800F0DC8170B582B00446036813F0FD
:104F3000010F3BD0984B9B6803F00C03042B2DD042
:104F4000954B9B6803F00C03082B22D06368B3F5E4
:104F5000803F4ED0B3F5A02F51D08F4B1A6822F46A
:104F600080321A601A6822F480221A606368002B6B
:104F70004FD000F0C3FC0546874B1B6813F4003F7D
:104F800014D100F0BBFC401B6428F5D97BE0012064
:104F90007AE0814B5B6813F4800FD7D07E4B1B689F
:104FA00013F4003F02D06368002BF0D0236813F0A5
:104FB000020F51D0784B9B6813F00C0F3CD0764B0E
:104FC0009B6803F00C03082B31D0E368002B66D0FC
:104FD000724B01221A6000F091FC05466E4B1B6873
:104FE00013F0020F52D100F089FC401B0228F5D9C2
:104FF00049E0694A136843F480331360B6E7664BAF
:105000001A6842F480221A601A6842F480321A60E8
:10501000ACE700F073FC05465F4B1B6813F4003FE0
:10502000C4D000F06BFC401B6428F5D92BE05A4B30
:105030005B6813F4800FC8D1574B1B6813F0020F45
:1050400002D0E368012BA2D1534A136823F0F8037E
:10505000216943EAC1031360236813F0080F41D0AC
:1050600063696BB34D4B0122C3F8802E00F046FC00
:105070000546494B5B6F13F0020F33D100F03EFC45
:10508000401B0228F5D9032002B070BD424A1368C4
:1050900023F0F803216943EAC1031360DCE73F4BC7
:1050A00000221A6000F02AFC05463B4B1B6813F0F7
:1050B000020FD1D000F022FC401B0228F5D9E2E714
:1050C000364B0022C3F8802E00F018FC0546324B08
:1050D0005B6F13F0020F05D000F010FC401B02289C
:1050E000F5D9D0E7236813F0040F76D02A4B1B6C58
:1050F00013F0805F33D100230193274B1A6C42F0E9
:1051000080521A641B6C03F080530193019B0123AE
:105110001E46234B1B6813F4807F23D0A368012B0A
:1051200033D0052B3ED01C4B1A6F22F001021A67B8
:105130001A6F22F004021A67A368002B3CD000F01B
:10514000DDFB0546144B1B6F13F0020F44D100F03A
:10515000D5FB401B41F288339842F3D993E70023F3
:105160001E46D6E70E4A136843F48073136000F0BE
:10517000C5FB05460A4B1B6813F4807FCED100F0B7
:10518000BDFB401B0228F5D97DE7034A136F43F0AE
:1051900001031367D0E700BF003802400000474218
:1051A000007000404F4B1A6F42F004021A671A6FEA
:1051B00042F001021A67BFE700F0A0FB0546494B29
:1051C0001B6F13F0020F07D000F098FB401B41F259
:1051D00088339842F3D956E7DEB9A369002B50D043
:1051E000404A926802F00C02082A4CD0022B16D0DA
:1051F0003D4B00221A6600F081FB0446394B1B68C8
:1052000013F0007F3DD000F079FB001B0228F5D998
:1052100039E7344A136C23F080531364DDE7324BD3
:1052200000221A6600F06AFB05462E4B1B6813F03D
:10523000007F05D000F062FB401B0228F5D922E771
:10524000E369226A1343626A43EA8213A26A52083C
:10525000013A43EA0243E26A43EA0263214A5360A5
:10526000214B01221A6600F049FB04461D4B1B68C6
:1052700013F0007F05D100F041FB001B0228F5D997
:1052800001E7002000E7012B3FF481AE154B5B687E
:1052900003F48001E26991427FF479AE03F03F02AA
:1052A000216A8A427FF473AE616A47F6C0721A407F
:1052B000B2EB811F7FF46BAE03F44031A26A520857
:1052C000013AB1EB024F7FF462AE03F07063E26A21
:1052D000B3EB026F01D10020D6E60120D4E6012015
:1052E000704700BF003802400000474208B5314B0C
:1052F0009B6803F00C03082B01D02F4808BD2D4BF1
:105300005A6802F03F025B6813F4800F2CD0294BDF
:105310005868C0F388104FEA401CBCEB000C6EEBE1
:105320000E0E4FEA8E1343EA9C634FEA8C11B1EBE9
:105330000C0163EB0E03DB0043EA5173C90011EB70
:10534000000C43F10003990200234FEA8C2041EA4C
:105350009C51FAF77DFF174B5B68C3F301430133A0
:105360005B00B0FBF3F0C9E7124B5868C0F388103C
:105370004FEA401CBCEB000C6EEB0E0E4FEA8E1396
:1053800043EA9C634FEA8C11B1EB0C0163EB0E0313
:10539000DB0043EA5173C90011EB000C43F1000339
:1053A000990200234FEA8C2041EA9C51FAF750FF02
:1053B000D1E700BF003802400024F400002800F0CC
:1053C000978070B50D4604464A4B1B6803F00703EF
:1053D0008B4206D2474B19701B6803F007038B42C0
:1053E00049D1236813F0020F17D013F0040F04D033
:1053F000414A936843F4E0539360236813F0080F25
:1054000004D03D4A936843F4604393603A4A9368FA
:1054100023F0F003A1680B439360236813F0010F9E
:1054200031D06368012B21D09A1E012A25D9324A36
:10543000126812F0020F1ED02F498A6822F0030270
:1054400013438B6000F05AFA06462B4B9B6803F01F
:105450000C036268B3EB820F15D000F04FFA801B8B
:1054600041F288339842F0D9032005E0224A1268BD
:1054700012F4003FE0D1012070BD1F4A126812F003
:10548000007FD9D1F7E71B4B1B6803F00703AB4242
:1054900006D9184B1D701B6803F00703AB42EAD115
:1054A000236813F0040F06D0134A936823F4E053E3
:1054B000E1680B439360236813F0080F07D00E4A8E
:1054C000936823F46043216943EAC1039360FFF7C3
:1054D0000DFF094B9B68C3F30313084AD35CD84004
:1054E000074B1860074B186800F0BEF90020C3E7AF
:1054F00001207047003C0240003802405457010828
:10550000900000208C000020014B1868704700BFFD
:105510009000002008B5FFF7F7FF044B9B68C3F32A
:105520008223034AD35CD84008BD00BF0038024044
:105530004C57010808B5FFF7E7FF044B9B68C3F31E
:105540004233034AD35CD84008BD00BF0038024054
:105550004C57010870B582B08E46002369E085681B
:105560004FEA430C032101FA0CF125EA0105DEF8AC
:105570000C1001FA0CF129438160416821EA020113
:10558000DEF80420C2F300129A400A43426064E04D
:10559000D908083150F8212003F00705AD004FF07D
:1055A0000F0C0CFA05FC22EA0C0CDEF81020AA40C5
:1055B00042EA0C0240F8212066E0042200E00022CA
:1055C00002FA0CF22A430231564D45F82120564A80
:1055D0009168E24321EA0405DEF8046016F4801FB6
:1055E00001D044EA010550498D60C96802EA01050D
:1055F000DEF8046016F4001F01D044EA01054A49B0
:10560000CD60496802EA0105DEF8046016F4003F47
:1056100001D044EA010544494D6009680A40DEF8BA
:10562000045015F4803F01D044EA01023E490A606B
:1056300001330F2B74D801229A40DEF8001001EAE2
:10564000020432EA0101F3D1DEF8041001F0030C88
:105650000CF1FF3CBCF1010F81D9DEF8042002F00F
:105660000302032A0AD0C1685D000322AA4021EA8E
:105670000201DEF80820AA400A43C260DEF80420D6
:1056800002F00302022A83D001684FEA430C03228E
:1056900002FA0CF221EA0201DEF8042002F0030211
:1056A00002FA0CF20A430260DEF8042012F4403FD2
:1056B000BED0002201921D4A516C41F480415164D8
:1056C000526C02F480420192019A99088D1C154A8D
:1056D00052F8255003F0030C4FEA8C0C0F2202FA0B
:1056E0000CF225EA0205124A90423FF468AF02F537
:1056F000806290420ED002F5806290420CD002F59A
:10570000806290420AD002F5806290423FF455AF29
:10571000072255E7012253E7022251E703224FE710
:1057200002B070BD00380140003C0140003802402A
:10573000000002400369194201D001207047002097
:1057400070470AB1816170470904816170470000A8
:1057500008B5054B5B69034200D108BD024B586197
:10576000FBF776F9F9E700BF003C0140002807DBB2
:1057700000F01F02400901239340024A42F8203002
:10578000704700BF00E100E0002807DB090100F1DD
:10579000604000F5614080F80013704700F00F0092
:1057A0000901014B1954704714ED00E000B500F0F9
:1057B0000700A0F1030CBCF1040F07D8C0F1070EDD
:1057C0000430062806D84FF0000C03E04FF0040E1A
:1057D0004FF0000C4FF0FF3303FA0EF021EA000106
:1057E00001FA0CF103FA0CF322EA030241EA020087
:1057F00000BD0000074AD36823F4E0631B041B0CC0
:10580000000200F4E060034343F0BF6343F400335D
:10581000D360704700ED00E010B50446054BD86832
:10582000C0F30220FFF7C2FF01462046FFF7ACFF9E
:1058300010BD00BF00ED00E008B5FFF797FF08BD01
:105840000138B0F1807F0BD24FF0E0235861054A58
:10585000F02182F823100020986107221A61704716
:105860000120704700ED00E010B504460D4B1868AC
:105870000D4B1A784FF47A73B3FBF2F3B0FBF3F0ED
:10588000FFF7DEFF08B90F2C01D9012010BD024639
:1058900021464FF0FF30FFF7BFFF044B1C60002094
:1058A000F4E700BF90000020890000208C00002059
:1058B00008B50B4B1A6842F400721A601A6842F479
:1058C00080621A601A6842F480721A600320FFF73F
:1058D00091FF0F20FFF7C8FFFFF756F9002008BD22
:1058E000003C0240034A1168034B1B780B441360D1
:1058F000704700BF8406002089000020014B186813
:10590000704700BF8406002038B50446FFF7F6FF55
:105910000546B4F1FF3F02D0044B1B781C44FFF74F
:10592000EDFF401BA042FAD338BD00BF8900002024
:1059300003685A6912F4806F01D1002070476FF438
:1059400080625A6100230363202280F83D2080F8A2
:105950003E30026C42F00402026480F83C300120C8
:1059600070472DE9F04106460C46174698463BE045
:10597000FFF7C4FF069BC01A404502D8B8F1000FDC
:1059800032D1012D18D033689B6924EA03039BB2FE
:10599000B3FA83F35B099F4226D1002333632022AD
:1059A00086F83D2086F83E30326C42F020023264A8
:1059B00086F83C30012027E033685B6924EA030362
:1059C0009BB2B3FA83F35B09E5E733685B6924EACA
:1059D000030C1FFA8CFCBCFA8CFC4FEA5C1C67457C
:1059E00011D1B8F1FF3FC3D1C4F30745012DECD06D
:1059F00033689B6924EA030C1FFA8CFCBCFA8CFC0C
:105A00004FEA5C1CEBE70020BDE8F0812DE9F04196
:105A100004460D461746984651E01A6842F4007253
:105A20001A6023686FF480625A6100232363202286
:105A300084F83D2084F83E30226C42F00402226457
:105A400084F83C30012048E0FFF758FF4346C01A75
:105A5000B84201D8002F32D1012E16D023689B699D
:105A600025EA03039BB2003B18BF01233BB300238D
:105A70002363202284F83D2084F83E30226C42F0DB
:105A80002002226484F83C30DCE723685B6925EA65
:105A900003039BB2003B18BF0123E7E723689B6920
:105AA00025EA03039BB2003B18BF0123A3B123687F
:105AB0005A6912F4806FB0D1B7F1FF3FC4D1C5F37A
:105AC0000746012EEAD123685B6925EA03039BB2EE
:105AD000003B18BF0123E9E71846BDE8F08100004C
