:400000000020002011000000910300009103000010B50C4A0C4B1A600C4B1A68102313400B4A00D113601368802B09D10023136000F096F8002803D000F092F800F0A8F84A
:4000400000F0A6FE6588EDAC3800034054000340800000200000000000000000000000000000000000000000000000000000000000000000000000000000000000000000B4
:400080000000000000000000000000000000000000000000000000000000000000000000000000000000000000000000000000000000000000000000000000000000000040
:4000C00000000000000000000000000000000000000000000000000000000000000000004C0A003561700000B01102200000000000000000000000000000000000000000C1
:4001000010B5064C2378002B07D1054B002B02D0044800E000BF0123237010BD8001002000000000940E0000084B10B5002B03D00749084800E000BF07480368002B00D100
:4001400010BD064B002BFBD09847F9E70000000084010020940E00008800002000000000074B1A78074B1878074B000219780B04184303001343054A107800061843704760
:40018000C1FF0000C2FF0000C3FF0000C4FF00000047000070B51D491D4BCC58002C34D00C3BCC5063052BD5C86D1A4BCA6D40041A600022400F824208DA15001835AD002B
:4001C0004E59013295005E51D2B2F4E707200F211A68550A05401140012902D1120B02420ED05A1CD27F002A03D09A1CD27F954206D001215A1CD1779A1CD57740225A6200
:40020000A30502D50122034B5A6270BD00000A400C05000000020020031E0CD00023994209D04118814204D0027801309B18DBB2F8E75B42DBB2180070470000F8B5040030
:40024000A37A407AE17A1B02034309041A000B00217B1343090619430626002935D0A57963792D021D43ED012800194F803043189C46BB4229D8A278637812021A43E3784D
:400280001B041A4323791B06134398421DD89C451BD9FFF7C1FF2378834216D12C008134FF34BC4211D80B4B22889A420DD12800E179A379090219438B300A39FF30FFF731
:4002C000ABFF237A834200D100263000F8BDC046FFFF00005943000070B5802504002D02AC4205D9054800F077FD054BE418F7E70448604300F070FD70BDC0460000E02E45
:400300000080FFFFC05D0000F8B5070001200E001500FFF7E1FF174C4020230028331B782A03384310435B021843134B134AD8601278D9685001802252000A430243DA60FE
:400340000022AA4206D291007058111D890058500132F6E780210A4A8902136803200B431360FFF7B9FF072228342378013313402370F8BD0002002000000A408C0000203B
:40038000C4000A40002210B51100FFF7BDFF10BD10B500F031FD03680C2B00D1FEE7FEE7002370B52E482F4C2F4D9A002100032B00D8A958013381501F2BF6D172B6DD22E4
:4003C00007252A4B2A4C1A602A4BA73A1A602A4B243A1A6000F009FD2368284AAB432360274B28491B780600DBB21360264A1368AB431360254B0A6818787F239A430340EF
:4004000013430B60322000F0E7FC052223683220AB431343236000F0DFFC062223683000AB431343236000F0E4FC9E22C021184BD2011A60174B184A89001A60174A1160DC
:40044000174A1A604022174B1A60174B1A68002A00D11A600121154A13680B43136070BD00000020910300000000000000000240080F034008000440300010400C0F0340A6
:40048000FDF1FF0F180F0340100F0340E4F1FF0F040201400000014001FF00800002014000FF0080280003408000002000001040F0B5C74C00232500A9B03135C5482B7005
:4004C000FFF7BCFE002801D004232B702300082131331A78C0480A43C0491A700A68019192B2BF4F824206D100220A6001211A780A431A7007E0019A12681A780423134057
:4005000001D100F0F6FB202201250026B54BB6495A809980D980E139FF391981B34B96209A65B34BC122DE611D623B68D200AB40EB403B6080231B063B60BB5816398B433C
:400540002B43BB50000100F047FC9622A94B52001A60A94AA94BD2211A60C022D200BB58C900AB40EB40BB507B58AB40EB407B50D623A349DB00F950BB58A2490B43142113
:40058000BB501032BB588B43BB509F4B0D311A68FF310A431A609D4A9D4916609D4A11608E211A68FF3115431D609B4A9B4B1A609B4A13685B0A5B020B4313608023994AE2
:4005C000DB0013609849994A1160994A99491360A1220133FF33F950D200BB580B438021BB50D932FF32BB5809050B43BB5062B6220032321578002D51D1C026F6000023C0
:4006000004AAD3719D4203D1BA598B4B134003E08822BB5952001343BB51F02000F0DCFBAD239B00FA58A0235B01134080225201934202D1012304AAD37104ABDA79AB001E
:40064000D2B2002A25D0E218516B01315163516B7A4A91421FD90022A11CEDB2E5636263A263CA77210028310A70611CCA772200012132321170C0220420D200B958814397
:40068000B950B9580B43BB50F8236D4A5B00FA5024E0E3185A630135022D1FD0AFE7AD239B00F9584D33FF331940E36B9B00E318002912D0596B01315963E36B9B00E3185E
:4006C000596B5E4B994209D9F8210023444849006363A3634350137000E05963666A012E23D1002500F081FB656200F082FBA31CDD77230028331D70631CDD77F8235B0022
:40070000FD50F2259620DE3BED00FF3B7B514000FFF7E2FDF8227B595200B3437B51484BBB50230032331E70B2E2636A402B00D0AEE200F05AFB0023636200F05AFB0F23F8
:4007400025682B406D046D0F00D18AE2022B0DD10320FFF717FE3220FFF7BEFD0620FFF711FE2300032232331A7091E20F2B00D08EE21C4B1A78012A00D139E76279D20901
:400780006ED02079C006C00E0138032800D97FE200F05EFB020E121A2A4B210023642A4B403163640023A364284B0422E36454E2274B2364274B02E0274B23640123210016
:4007C00063644031022248E2244B236442E2C04600020020C0FF00004C4200008000002000000A408C000020FF01000000FF0A40FC000140D0000A400A404101D4000A4004
:4008000061643D008A0E304FC4000A40A8000A400B410000BC000A400F020000B4000A40E4000A4080E100E0950100006800002000E100E003060100EFFEFFFFC40900002E
:4008400020002000418000FFB4040092000060F6428000FF0000B4044380B4044480B404E288C6498A4200D0E6E1210026792000F206D20E0292C14A603103914A8018210D
:400880006130027876098A4310390A4302701F20039972010978013D0840039902430A70029AAD00501EEDB20C2800D9C4E100F0D9FA0D0014003E007000C3019200A50094
:4008C000BF002701430191019A01A401002D06D11F236566A366032229E2002D09D022001821613213788B4308390B43137001221DE22200E023643203CB03C2230021009E
:4009000031331B7829315B0707D49D4B5B681902090CC90161310393FF31200008226C3000F0AAFA002307226367A367FFE1042DD5D1237A532BD2D1924B00209B6CA36610
:40094000914B1A78914BD1B2E1661B781B020B431A00E3668E4B1B781B0413438D4AE366127812061343E3668B4B1A788B4BD1B221671B781B020B431A002367884B1B786F
:400980001B041343874A23671278120613432367DAE1042DA3D1237A522BA0D172B6019B019A1B68F2251360F823002296205B00FA50DE3BED00FF3B7B514000FFF78CFC2C
:4009C00001227B5978499343784A7B5113689BB20B4313605CE1042D81D12300227A7C33502A07D118784E3A904300D0AAE11A70033DA9E1002001251870A5E1701EC3B2E1
:400A0000052B00D96BE718235843C0B2062E03D09D4200D063E702E0082D00D05FE72100634B0830181808312A0000F025FA2FE1042D00D053E75F4A127A002A00D04EE78E
:400A4000227A462A00D04AE7A27A0E201102627A0A43160022007C321278002A45D05A880738B24241D89A88B24202D2DB88B3423BD1514B07209E4237D830224F4D4C4983
:400A8000AB6A08319343203A1343AB62703208A800F0F2F94A4B4B4906937F23079306AB8B60494B4B60C046C046C0468B681B0F1A070A2B10D1454833040343069306AB95
:400AC0008B60434B4B60C046C046C0468B6800211B0F1B07934200D00C213022AB6A08009343AB62002900D00520334B9E4200D094E022000421313213780B4313708DE009
:400B0000002D00D0EBE6711ECBB2052B00D9E6E6182359430822C9B2062E00D01A002000234B08316430591800F0A6F90722062E00D0FCE0043AFAE0042D00D0CFE6227A9E
:400B4000462A00D0CBE6A17A627A0902114322007C3212780E20002A60D01B8907388B425CD2154B994259D88140114880220830033D00F081F92800E6E0C046B4040000B8
:400B8000C0FF0000FCF0FF0F78F1FF0F79F1FF0F7AF1FF0F7BF1FF0F7CF1FF0F7DF1FF0F7EF1FF0F7FF1FF0F0400FA050CED00E08002002000030020FF01000000000340C4
:400BC000B6D700000000104004000080B6D8000005000080042D00D081E6267A012E00D193E007201AE0002D00D078E6230031331A78230060331A710EE0082D00D06EE6E9
:400C0000A068E168554B42189A4200D967E6FFF703FB230060331871022288E022001F210125603213788B4302990B43137001350230EAB2606682E062684949130C8B4255
:400C400026D1E723110A22640B402200102141320B4313702100012240310F20FFF754FB16E0092B14D123003233187803280FD13C4E3378002B03D10130FFF783FB07E0D5
:400C8000FFF780FB2021384A13688B4313603570210032310A78012A13D12025324803682B4303602F4B1A7002230B7000212F4B2F4A99502F49304A995005212F4A99508B
:400CC00096E4022A00D093E4284D2C4EAB59DB0300D48DE42349013A10000C31FFF714FB0022234BEA50244B224AEA500523AB517EE4234A234953728023019A1360224AD8
:400D000013689BB20B43136072E42048FFF796FA21003131002804D10B78AB430B70350012E00A78062015430D7035000CE021001F2060310B788343029803430B702100FF
:400D400060318AE70125032022001F21603213788B4302990B43137069E7C046FFFF0000B40400008C000020C4000A40001000E018D00000FFEA410014D0000010D00000E3
:400D8000000300200400FA050CED00E0C0FF0000F8B500250E490F4B01394A1C14D000221F685C689E68A018B24203D0B858A0500432F8E70200DE68141AA64201D020C256
:400DC000FAE710330139E8E700F01CF8FFF770FB01000000C00E00000230800803D00138FDD1C046C046C0467047EFF3108072B6704780F310887047014B18687047C04699
:400E0000000100200E4B70B500251E000D4CE41AA410A54204D0AB00F35898470135F8E700F03CF8084B00251E00084CE41AA410A54204D0AB00F35898470135F8E770BD8E
:400E4000A80E0000A80E0000A80E0000B00E000002B4714649084900095C49008E4402BC7047C04603B47146490840004900095A49008E4403BC7047002310B59A4203D0BD
:400E8000CC5CC4540133F9E710BD000089000000800F00000000000043000000F8B5C046F8BC08BC9E46704729010000A1030000F8B5C046F8BC08BC9E467047010100005A
:400EC000D00E0000880000208000000008020000000000000100000200020002000200005A90010A32000000000000000000000000000000000000000000000000000000B2
:400F00000000000000000000980E0000000000000000000000000000000000000000000000000000000000000000000000000000000000000000000000000000000000000B
:400F40000000000000000000A000002000000000000000000000000000000000000000000000000000000000000000000000000000000000000000000000000000000000B1
:400F80000000000000000000000000000000000000000000000000000000000000000000000000000000000000000000000000000000000000000000000000000000000031
:400FC00000000000000000000000000000000000000000000000000000000000000000000000000000000000000000000000000000000000000000000000000000000000F1
:401000000020002001150000B94E0000B94E00000000000000000000000000000000000000000000000000000000000000000000000000000000000000000000000000004C
:401040000000000000000000000000000000000000000000000000000000000000000000000000000000000000000000000000000000000000000000000000000000000070
:401080000000000000000000000000000000000000000000000000000000000000000000000000000000000000000000000000000000000000000000000000000000000030
:4010C0000000000000000000000000000000000000000000000000000000000000000000590A003561700000B01102200000000000000000000000000000000000000000A4
:401100005943000401200004933BB4040100010000020B000000000000000000000000000C02180024020000240200002402180000000000000000000000000000000000A5
:40114000010102000000000C0007FF0000070100010001000000000000000000000000002C9101032CD102002CC103002CB10400454106003C2140C14121A4C90000000005
:401180000000000000000000000000000000000000000000000000000000000000000000000000000000000007003C02400248024C020000500260029C02000000000000BE
:4011C00000000000000000000000000000000000000000000000000000000000000000000000000000000000000000000000000000000000000000000000000000000000EF
:4012000000000000000000000000000000000000000000000000000000000000000000000000000000000000000000000000000000000000000000000000000000000000AE
:40124000000000000000000000000000000000000000000000000000000000000000000000000000000000000000000000000000000000000000000000000000000000006E
:40128000000000000000000000000000000000000000000000000000000000000000000000000000000000000000000000000000000000000000000000000000000000002E
:4012C00000000000000000000000000000000000000000000000000000000000000000000000000000000000000000000000000000000000000000000000000000000000EE
:40130000B40462F643797072657373001800000041A000FFB404800100000000000062F600000000B40462F6000000000101000000020000000000000001004104140A02B1
:4013400008140A020000000004460A0204000101100000000000000000000000000000003C02000000000000400D0300A00901000000000039000000000000000000000068
:4013800000000000030000000000000000000000000000000000000000000000181D0000000200030F4F7F0000000000000000000000000000000000000000000000000013
:4013C00000000000000000000000000000000000000000000000000000000000000000000000000000000000000000000000000000000000000000000000000000000000ED
:4014000000000000000000000000000000000000000000000000000000000000000000000000000000000000000000000000000000000000000000000000000000000000AC
:40144000000000000000000000000000000000000000000000000000000000000000000000000000000000000000000000000000000000000000000000000000000000006C
:40148000000000000000000000000000000000000000000000000000000000000000000000000000000000000000000000000000000000000000000000000000000000002C
:4014C00000000000000000000000000000000000000000000000000000000000000000000000000000000000000000000000000000000000000000000000000000000000EC
:4015000010B5044B83F30888034A044B1A6004F017FBC046002000206588EDAC3800034010B5064C2378002B07D1054B002B02D0044800E000BF0123237010BD800100201C
:4015400000000000D8CE0000084B10B5002B03D00749084800E000BF07480368002B00D110BD064B002BFBD09847F9E70000000084010020D8CE00008800002000000000F4
:401580007047704770B570244443064E0500A359002B02D098470023A3510122024B5A5570BDC0468C080020FC08002010B500280DD1F22303240649DB00CA580230A243A1
:4015C0000243CA50034A8B58A34303438B5010BD00000A409407000000280AD1F222054BD200995803300143995003495A5802435A50704700000A409407000070B5040067
:4016000015000BF013F870236343074A0321D318002800D00421197370216143083151182000A84770BDC0468C08002010B50AF043FD10BDF7B50C000092050008F0A2FDCE
:40164000B8235B006B43234F0098FB18FE33604364211E8B0BF002FB0019C343DB1718401D4B400019780BF0F9FAB6B280B2000231000BF069FA0400032803D9FE2802D9A8
:40168000FE2400E004240AF048FEB8235B006B43FF18FF377B7D0190002B02D080231B031C43D0260D4FF600BB590A2000930C4B1C43BC5107F0F4FF2800009A0021BC592B
:4016C00003F008FF01980AF02CFE0120E40BA043FEBDC04608070020A600002000000A400002020010B504000AF004FF763002780C4B002A02D11A5D012A03D10A4A125DC9
:40170000002A03D01A195278002A09D0002201211B195A70044B2000195503310AF062FF10BDC0469C0100206003002010B50400042905D1074B1B1899780BF067F908E046
:40174000032906D10AF0D6FE024B9C301C190378A37010BD9C010020F7B570244443324B05001C1945342378002B5CD10AF040FDFA222E4B5200C3189BB2934213D92C4BCA
:40178000984202D92800FFF727FF2A4C322223005E21280009F0E4FF230001225D21280009F0DEFF3FE001262670002D3BD10A2007F076FF204B214C1A780193B24219D078
:4017C000E8277F003220E55107F06AFFE651642007F066FFE0593040FCD10522184B5B211A80184B043A1870174B09F0B9FFA8235B0101E0FF231B02E8225200A350012350
:40180000F821019A49001370022263580F48134363506358934363506358625810430C4A134003436350F7BD8C08002072EDFFFF82140000A52100008C04002000000A4020
:40184000A8000020780A002061C1000020002000FFFF7FFFF0235843034BC01898300088024BC0187047C0462011000000110000F0235843034BC01896300088024BC01891
:401880007047C0462011000000110000F022044B50435B5CC018034B185A034BC0187047DCCE0000201100000011000070B50400FFF7DEFF70236343354A0600D318C8228E
:4018C0001D8E9200954201D1324A1A8620000AF011FE5C233F22FF33C35C9343C02B01D0738AED182C4B1B5D002B03D02B4B6200D35AED182A4EB54210D8002C47D1200046
:40190000572109F009FF07F0EFFFC823A8B29B009D420CD8200007F0DFFA38E0002C36D12000572109F0F8FE07F0DEFF300014210BF00AF9142358431A4A83B21A49108847
:40194000884204D800200131118018490880184908780C00052806D014490888142141430C48091811800020124912880B80124908709A4207D104230122237057210F4B83
:4019800009F0EEFE03E05721207006F0A5FD70BD8C080020881300008008002084080020FC530000FA0600201F0300000007002061030020F8060020FC060020D984000016
:4019C00070B5702444430A4B05001C194B342378002B0BD003F060FB002128000AF0E8FF002323212370280009F096FE70BDC0468C080020F7B504000E000AF07BFD702327
:401A000063435A4D0090EB181E86594B1A78002A2AD1DC215748C9004758574B3B4002273B43564F4350564B3A80564A20001A800AF0DEFB534B984210D01A1A984201D9FF
:401A4000514A821892B2F92A08D800B2181A14210BF004F900B2388003F002FD0122444B1A704A4B04321A70494B1F5D002F14D12000FFF7FDFE038A002B0ED001231421C8
:401A8000434A1355434A63009952434A43499F52434AA3009950434B1F553100200008F0CFFC20000AF026FD5C223F21FF32835C01928B432000C02B32D108F0C1FD2000AD
:401AC0000AF018FD0300FC33DA6C9B6C9A4229D0A22305225B00C35C64275B065B0E5343632B00DD1F00019BC35C1B070DD58423FF33C05C2C4B584370236343EB18198EFF
:401B00000BF022F8874200D907003900200003F045FB702301226343EB184B331A7001E0FFF74EFF200003F035F870236343ED18C823298E6A8E9B00914205D39E4211D0B1
:401B4000200002F04DFF0DE09E420BD0009B72331B78002B06D045352B78002B02D0200002F0F0FE2000FFF7A1FEF7BD8C0800200607002000000A400700C0FF00070020F0
:401B8000FA0600208813000078ECFFFF610300208008002082080020840800208115000088080020FC080020A0860100F0B504008FB00D001700002821D1162918D00AD8C6
:401BC000022913D002D8012914D018E0032911D00B290FD013E01A290CD002D818290BD90DE00B001F3B012B06D908E0012004E0022002E0002000E003200AF059FB2000E7
:401C00000AF062FD0600681E392800D93BE10BF059F9790062007900C500C5003A013A013A013A0179006C003A013A013A013A013A018A016E003A0132016E00D8003A015E
:401C40003A013A0179003A013A013A01FA003A013A013A013A013A003A013A013A013A012E013A013A013A013A018A013A0127013A013A013A013A013A013A018A013A0187
:401C80003A016E00D4005A21200009F02BFDBD4F002803D03B195B78002B0AD15A21200009F03AFDFA22B84B92005A21200009F057FD6F363B193278DB789A4207D009227F
:401CC00010006043B14B0021C0180BF0E8F833783F19FB7027E170236343AD4AD318190000223A310A703933CBE0012700E00027763633780126002B06D02E00153E7342B5
:401D00005E4101E00026370070236343A04A0021D318180039333A30017019700192032D01D01A2D13D15A21200009F0DBFC002804D0944B1B195B78002B03D15A21200009
:401D400009F0EAFC0023934A13558E4A1355002F05D1002E03D12921200009F0DDFC012D0FD10923002263438B4988485918C318985C8E5C864200D2A8E00132092AF7D179
:401D800098E0032D01D01A2D7DD1F02280208349D2008B58000603438B5074E0702363437B4A0121D3181A003A32117019000022393144330A701A7065E0724B01221B19DC
:401DC0001FE070239436327871496343012A03D9CB183B33012202E00022CB183B331A7002223B799343012B00D09CE05A21200009F092FC634B1B195A78002A00D192E0BA
:401E000000225A708FE0FB79B978DA091DD01A205B061B0F01335843FA88D205D20D824213D903AA5170002151800F310B40DB0075310B433878D370524B10700433936062
:401E40001B2377391373564B06E002239943092969D0002312211A0020000AF065FB62E0702363434A4AD3183A33002209E00122444B1A5557E070236343454AD318012271
:401E800049331A704FE0172D47D006D8032D2BD0122D29D0012D46D118E01A2D24D003D80221182D3CD03EE01F2D38D00321202D36D038E070236343019AD31842331B78C2
:401EC0005BB2002B02DB20000AF094FD09230022634331492D485918C318985C8E5C864221D30132092AF8D170236343284AD31842331B785BB2002B02DB20000AF07AFDE6
:401F0000032D01D01A2D0ED10922100060431F4B0021C0180AF0C3FF05E0002100E00121200009F071FD2000FFF794FC0600002C52D11A2D42D004D8032D3FD0162D41D02B
:401F40004AE0232D02D0282D2ED045E020000AF0D1FA67300378012B3ED10F2573782B423AD02000FFF776FC43782B4202D183789B0731D000220B4B1A731A7001325A7028
:401F80005A6029E09C010020E51600006D0A00208C08002060030020A801002000000A402D1700004403002020000AF0A3FA67300378012B10D173781B070DD0002002F048
:401FC00055FA09E020000AF095FA67300378002B02D1B3789B07F1D10FB0F0BD70231A00424370B50D00214904008A184B321278002A1DD0002D1BD1013520000AF07AFA86
:402000005C233F22FF33C35C9343C02B04D080212000C9040AF0C0FC00221F212000FFF7C5FD002D20D00121200002F007FE1BE0C82263439200CB1820001A86FFF736FC1E
:402040000121200002F0FAFD002DD6D080212000C9050AF0A1FC172120000022FFF7A6FD0349200002F0BAFE70BDC0468C080020831500001E39F8B504000800062900D97C
:4020800086E00AF057FD048521464F74690020221F21200009F0E0FA702363433D4A0121D318C82292005A86200002F0C7FDF0236343394AD318A8331B785B0768D5002187
:4020C0002000FFF78BFF63E070252F0067431E21200009F021FB2F4E2000F7193B8E7B864837FFF763FA3B782000002B02D102F077FC01E002F026FC654375194B352B784E
:40210000002B30D0254B64222321200009F028FB29E02000222109F0FFFA0121200002F08DFD35E01E490A222000FFF783FA011E02D1200002F082FD1422C82152428900E8
:402140002000FFF777FA154B002802D10A2224211BE00122222118E02000212109F0DCFA2000FFF723FA2000FFF70CFA10E070236343084AD3184B331B78002B08D0200099
:402180000AF074FC64222321044B200009F0E8FAF8BDC0468C08002000110000752000008813000070B504000E000AF021F805005E2E0FD15D21200009F0AEFA2000FFF7E1
:4021C000F5F9124B00219D4200D901212000FFF705FF19E05D2E17D10D4BC518FA23ADB25B009D4206D90B4B01223100200009F0B7FA09E05E21200009F08EFA2000FFF7B6
:40220000D5F92000FFF7A8FA70BDC0468D12000072EDFFFFA521000010B5040020221E2109F01AFA2000FFF7ADF92000012102F005FD80212000C9040AF0AEFB0022202146
:402240002000FFF7B3FC10BD10B5040020221E2109F002FA2000FFF795F92000012102F0EDFC80212000C9040AF096FB002218212000FFF79BFC10BDDC218020F0B59F4BB2
:40228000C9005A58000502435A509D499D4A8BB003939D4B914201D8012200E002229B4C1A70200009F090FB994E051E00D09BE32300B6331A782300B7331B781B02134338
:4022C00000D191E3FFF7D4FA03783B2B00D88BE34778022F00D087E32300AA331A782300AB331B781B02134300D17DE329002800FFF7CCFAC37833702300AC331A78230018
:40230000AD331B781B02134300D16DE301212800FFF7BCFAC378B3702300AE331A782300AF331B781B02134300D15DE31B19DB7873702300B0331A782300B1331B781B02D7
:40234000134300D150E339002800FFF79FFAC378F3702300B8331A782300B9331B781B02134300D140E32800FFF774FA0378172B00D839E300214023664AD16113623E3B3B
:4023800053623F33D3623E3B13633F3353630133D3630F22604B1B689343D8B25F4B1B681B09134003430C205D4A113B13700B00FF3102005A430133B21891751F2BF8D104
:4023C000002040218026574B574A1870574D58701160574A3F39AA63EA6C36060A43EA64EA6A3243EA626964524A5349534E1160534A544950509051534E54481650544895
:4024000006680595B6B20768BFB2BE42FBD0504E3668B7B204970527575080277F0255583D42FCD00068049D80B2854202D980277F023843861B00205E80505062B6454AE8
:40244000454E17680100B74206D19168434D5068401947427841091800201660506091603F49404A11602200B63211782200B732127812020A43A218117D3B4A1170E21CED
:40248000D17F221DD27F12020A43042A03D9043A92101A7100E01871621CD17FA21CD27F12020A430432A2189A60E21DD17F22000832D27F12020A43042A57D9043A92103A
:4024C0001A73621DD17FA21DD27F12020A430432A2181A6122002A32117822002B32127812020A439A8222002832117822002932127812020A43A2189A613AE000000A4091
:40250000E0100000FF7F00008C00002000110000A8010020FC000140E80F00F0EC0F00F0A80400202803002080E100E0000003406588EDAC58000020C1B4000018D00000A2
:40254000001000E010D00000BF5D000014D000003C00034000180020EFBEADDEF4CFFC3FB1B3000094040020A400002000221A739A822200C2321178D24A00263C32117023
:40258000D14AD249FC3251638E21039AC9005058CF4A0240039842505E772300DB34DA331A7823781B021343B34212D007213000FFF76CF9417804004B1E99413000C9B2D5
:4025C0000AF0ACFAA17830004B1E9941C9B20AF0ABFA1021BF4A0024136820008B4313609168BD4B0B40C021C9010B439360BB4ABB4B11680B401360BA4BBB491C70BB4B46
:402600001C7009F091FEC221B94BBA4A200009F0A7F8059B20009C6309F0ECFE642120000AF03CFAA74B42330493002009F040FF0222049B1B78134213D0AF4A032100204B
:4026400009F0D0FF0F280CD00222049B1B789343049A13701378802252421343049ADBB21370A64C230038331B78012B09D1002009F040FFA2300378072B02D100200AF090
:402680006DF9002009F036FF71300078C0B2002802D101F0EBFE71E0637F063B022B5FD80020FFF7D7F800250226954A09AB05901A800023320000931900180007F0B2FC7C
:4026C00009AF002801D178550CE000230021009332000533080007F0A5FC0123002800D002237B550026012D01D00125E1E7638D3D88AB4207D1638D49219BB2A3853000F1
:4027000009F00AF82CE0A38D9D4211D0638D7D4A9BB2934201D1012D07D8002328224921180009F01DF8A5851AE0628D9A4217D04921002008F0D6FF002811D1A38D9BB239
:402740006385638D9BB2002B03D180211800090104E0059B5B785B0702D5082101F0D8FD6648203007F040FC01000B2806D8637F5D4A9B00D3189B6C00209847624C237852
:40278000002B10D05D4B39331B78052B0BD12321002008F0A7FF002805D1202108F0A2FF002800D128E1554C25003A352B780023E36309F04DFE002800D136E709F0ADFD41
:4027C0002B780490002B00D0EAE102223D4B42331B78134200D0E3E1206A002800D0DFE1472108F07FFF002800D0D9E1482108F079FF002800D0D3E1492108F073FF0028EC
:4028000000D0CDE1627F072A08D1C021039B49005B580130FF300343039843508E21F020039BC9005B580003034303980126435088203649039B40045B5803430398435039
:402840002000039B0C392A305B5800781B0C0238454268413340984200D0A1E12C4B595823002B331B78090A023B5842434131408B4200D094E1063AB24259D80223658DF7
:40288000FF33ADB29D4245D00ED8B54250D10023022219001800009507F0C4FB02230093002329001A0040E081235B009D4238D0144B9D423CD10023009602221900180055
:4028C00034E0C0468C08002008070020634400001818FFFF00010440FF8FFFFF00010240FFFFF0FF770A0020E8CE0000760A002099B80000EE020000E9B8000028030020E1
:402900000303000001020000FC0800209C04000000000A400023009602221900180007F081FB002331001A000096100007F07AFBA84B1D78EDB2002D00D133E101240025FC
:4029400031E06378002B09D0A34B02341B6CE28F9BB2934202D0322006F0A2FED2251827C52602229D4CED006359F600BB436351A3591343A35109F0D0FC0421984B994AFA
:402980001B889BB21360984A13680B43136030BF09F0C7FC0222A3599343A35163591F43675101242500049809F0BBFC002D01D009F078FD002C00D134E68C4B5B7F063B20
:4029C000012B00D92EE60021080002F0CBFC0221002001F08BFC0121002002F0C3FC0421002001F083FC1DE6814A824913680B43136006F06DFFBDE47F4B20701B78002B89
:402A000000D1D0E67D4B0B261D8809F086FC7C4BF021FC330593059A7A4B0690D366F022039B52009B58E03AFF3A1343039A4900535006ABF618ADB209AF681D3A00310037
:402A400002F03EFBD620E8211F25039BC0001A586D4BC9001A403B78604C1B041343039A51586A4A0A4031782940E82589020A430399ED004A51039AF0211350F022039B49
:402A8000D2009B58039A5B005B08C9005350FD220121039BD2009B580A205B005B080B430399FC258B5006F0FBFDE522039B92009B5803999B0A9B028B50039B54499B5819
:402AC000AD000B4303998B50FA212022039B89005A50039B5B591343039A5351069809F020FCF822039B92009B58444B1B88192B00D858E6414B1B889BB2069309F00DFCBA
:402B0000059A444B07909366F02302225B00E35831001343DF32FF32A350069B3A00581F02F0CEFAD822FF21D200A3588B4339781943E823DB00E058374B184033781F2698
:402B400033401B050343E820C0002350F023A1500121DB00E358C0325B005B08A3503032A3580A205B005B080B43A350E6229200A3582A499B0A9B02A350A3580B43A35063
:402B800006F08EFDFA2340229B00E250635913436351079809F0C5FBF8239B00E35802E60024FFE609F06CFC002800D1C6E6280009F0A0FC72300378002B00D1C1E609F0CC
:402BC000ACFB0421084A13688B43136030BF09F0A8FBE6E6FC0800200000034000000A4052F1FF0F0400034010ED00E028030020800000204C4200008008002082080020B3
:402C00000807002001A60000FFFF00FFFF83FFFFE5030000C1A50000FFFF0FFEEB030000022906D1002804D1A623024A01395B00D154704708090020704710B5022905D1C7
:402C4000C8220731920006F0F9FA04E0082902D1043906F023FF10BDF8B5040009F034FD93239B0063431D4D1D4AEE18B61832780700002A0FD102005B5999329B7A2000C5
:402C8000DB09137009F020FD01233370030099331B7898300370932392229B0063439200EE18B6183278002A17D1EB5897371B7920009B093B7009F007FD3378002B0CD1A2
:402CC000013333700300943097331B7802789A4200D90370200003F0B3FDF8BDAC04002049020000F8B5050009F0EEFC93239B006B43284E284AF3189B1800221A70037C3F
:402D00000400934235D0030066331B78012B04D0030094331B78012B2BD9230081331B78002B26D023007D331B78002B08D193239B006B43184AF3189B1801221A7018E040
:402D40002700C0373B682800DB699847002810D1230079331B78002B05D02300B9331A7818231A4205D03B68703421785B692800984793239B005D43483B7619F2180023F4
:402D80001380064AB218137082229200B6183370F8BDC046AC040020070200000902000010B5040009F090FC030000219C33197093239B006343084A8430D318074A9B18E7
:402DC00019700378062B02D0200006F05BFC1021200006F063FE10BDAC0400200A02000070B5050009F070FC0300002677331E7004000A21280009F015FE3100280006F06C
:402E000041FC2800022106F049FE0423A434236070BD000070B50D00040009F055FC022D1AD101237A3003700021200002F018FD8022124D52032B68322013432B6006F0E9
:402E40002FFC80222B68520213432B6037220921200006F0F3F910E0082D0ED1074B084A19687A300A401A601968064A0A401A60002303702000FFF7B3FF70BDC4000A4073
:402E8000FFFFFEFFFFFFEFFF70B5050009F01CFC03000026040075331E700E223100280008F0DAFB230084331B78052B03D03100280006F0E7FB2800012106F0EFFD042343
:402EC000A434236070BD0000F8B50D00040009F0FBFB0700A81E08286AD809F02BFE051855555569696959002000FFF7B5FE93239B0063432F4A20009A583B009168FC33DE
:402F00009964C0373B682C4ADB6A984750E09325AD006543274A294B5519EB181B781600032B04D10E21200006F0B8FD40E03A008F23FC32926C9B00EB181A609022753779
:402F40003B789200AD18002B02D10821297006E0200009F0F3FC002805D117212870200006F09CFD04E0042320002B70FFF78CFF93228F23920062439B00B218D2181621B1
:402F8000200009F05DFD13E02000FFF709FF0FE093239B006343074A0849D3181A008532FF3212785B181A700021200003F002FCF8BDC046AC0400204991000022020000D6
:402FC000F0B585B00E00040009F07EFB03000090FC33B01E9D6C062800D9ABE009F0AAFD048996969EAAA60093239B006343524AD318524A03939B181A78012A06D10021E9
:4030000001321970200003F0D5FB93E06B005B0F4133009A9B00D3185E683F23370E9F430297C02F26D1464A0A21200006F006F980212000490209F047FD642233041B0E48
:403040005A43019214222B035B0D5A43052317003C4A6D0694466D0E5D43039BF93A63441B78FF3A9343C02B24D10F21200006F015FD24E00A21200008F04EFB80212000E7
:40308000490209F021FD0022009B02999B331A7033039B0D323253430193B3009B0D019F002901D05A4317002B0101D52D0300E0AD05AD0D1C220921200006F0BFF8932380
:4030C0009B005C431C4B6A461C198A2392889B00E3181A801C4BE3181F8089239B00E3181D808D239B00E418009B2660FC33DE6520E00321200006F0C5FA200006F038F85A
:403100001C220921200006F099F813E02000002106F0B8FA2000FFF743FE0BE02000002106F0B0FA2000FFF7AFFE03E00F21200006F0B4FC05B0F0BDAC04002006020000AB
:40314000B0360000370200002602000037B50400881E0A2854D809F0EDFC062B39393153535353533900200009F0AEFA030095331A78244B1900012A03D97C300178490368
:40318000194393229200130063431F48C5182A0001237D32FF3211602000009219000F2203F0E0FA194BED182B7801332B7027E01B220121200006F041F821E093239B0025
:4031C0006343114A2000995806F07AF80121200008F0A2FA80212000490109F075FC0921200008F07FFA002806D0200009F06CFA0C23A230037003E00B21200006F04EFCEF
:4032000037BDC046018000FFAC04002002020000F8B5040009F058FA00210500200002F01FFB932292006243214FBB18214A991800220A70204959180A70204959180A7063
:403240008221890059180A701D4959180A708121890059180A801B4959180A708D2189005B181A602B00FC339A64DA65873B1A701A71944203D1144B4D33FF331C700A216D
:40328000200008F049FA2B000026A4331E60083B1E70D6235B00EE54A03363430B4AFB189B181E70200006F0D7F8094B1E55F8BDAC0400200302000006020000070200003D
:4032C000090200000A02000008090020490200006A03002037B50400881E062828D809F029FC040E1414162714000121200003F095FA0D220121200003F05CFA18E01B228E
:403300000921200005F09AFF12E00B210DE09320002280006043074D009201210823405905F094FF414241410A31200006F0B6FB37BDC046AC040020F0B585B0040001911D
:4033400009F0C2F9037C93250293030079331B78AD006543DBB203935D4B019A5D195D4B0600EB181F78022A00D08AE0200009F0ABF9020000239B3213702D3A1370564AF0
:403380000121AA181370554AAA181370020081321170013A137081229200AD180200FC322B8093648A22FF3283549C421AD12100200003F033FA0121200003F02FFA01992C
:4033C000200003F02BFA464B1A00FC3254651A005532FF3214701A0044334D32FF32FF3314701C70200003F02BFAB8235B0063433C4A3D4DD31800222A33FF331A70A0231D
:403400003A4ADB00EA50200009F05EF9E022A2239200DB00EA5094300378012B05D980219932FF32AB580B43AB50A123DB00EA582F490A430221EA50EA580A43EA50002FE8
:4034400002D03722073107E0029B002B08D0039B002B05D132220921200005F0EFFE34E03200BE321388002B2BD093239B0063431749CB181F495B180121197012880831B9
:40348000EAE7019A082A20D1002F0FD000221A70029B0B21934215D0039B934212D103007D331B7893420DD002390BE0114B0A21ED182B78002B05D02F700131200006F0B6
:4034C000EDFA0B21200006F0E9FA05B0F0BDC046AC040020030200000102000002020000080900200807002000000A407F060904000609044602000070B5040009F0E4F8E7
:4035000005008178200003F0C5FC0121200002F0A7F920000E22002108F09EF82B000022A4331A60012377352B701521200009F079FA70BD70B50E00040009F0C5F80500FC
:40354000B01E0B2842D809F0F5FA0641414127412B414141413EB4220921200005F06EFE2B7C012B32D12B0079331B78002B2DD193239B006343164AD318164A9B181E78D5
:4035800008F0C0FF864221D20A23A2352B700421200009F08DFA19E02000FFF701FC15E093239B0063430A4AD3180B4A9B181B78312B04D80B21200006F070FA06E0200079
:4035C000FFF79AFF02E02000FFF75EFC70BDC046AC040020020200000102000073B50E00040009F071F80500B01E0B2800D9A0E009F0A0FA06214253719C8A9F9F9F9F92F1
:403600002B0074331B78062B06D1C0352B6849491B69200098478CE0200009F05DF82B000D35FF357E331B78012200950021200003F098F87DE00221200008F06DF88021A7
:403640002000890109F040FA012376352B7093239B006343384A2000D31880229200991800220A7035495B18F9391A70FF391B3205F0E4FD28212AE02B0075331B78012B11
:403680000BD193239B0063432B4A1721D3182C4A9B181B78012B2CD132E076352978C9B200292DD19325AD006543234B20005D19224BED182B7801332B7003F0AFF80C21FE
:4036C000200006F0EBF92B78062B32D12721200009F0A8F92DE09320012280006043164D009204230021405905F0B0FD002804D00D21200006F0D2F91BE02000FFF7ACFAB7
:403700002000FFF74DFB14E02000102109F08AF92000FFF7B9FB0CE076352B78002B08D180212000890109F0C3F902E02000FFF7E3FE73BD0D910000AC04002001020000E8
:403740000A02000070B5040008F0BEFF05000021200005F097FF2B0000226E331A70AD7C2000012D06D105F092FF2900200009F0B7F901E0FFF7C0FE70BD0000F8B50400DD
:403780000F0008F0A1FF0300C03305001E68072F23D0082F35D0022F4BD18178200003F079FB2B0070331978200073699847002376352B703621200009F034F908F0AEFECB
:4037C000002824D008F0AAFE09210200200005F035FD0122174B1A552BE0200008F074FF020000239A32763013700B210370200009F018F93900200006F050F90E4A02211A
:4038000010E00C4B1A5D002A10D000221A550A492000736898470949F3682000984714220921FF32200005F009FD02E02000FFF789FFF8BD6A030020881300000D910000AF
:4038400070B50D00040008F03FFF072D24D0082D27D0022D40D1200008F036FF05002000FFF7D6FC2B007033197850331B6820009B6998472B0001227D331A70174B18495B
:403880001A5593239B006343CB18164966355B182A701A701A3217E00321200006F0FEF81AE093239B0063430D4AD3180D4A9B181A78002A0DD00022C0301A7003680A498B
:4038C0001B6920009847094A0921200005F0B6FC02E02000FFF736FF70BDC046340C0020AC040020450200000D91000071020000F7B504000F0008F0E7FE0300A1331E7810
:403900000500F6B2022F04D000D299E0052F7ED996E04C4B4C491A1952780193002A09D193228023920062439B008A18D218137801331370932380229B0063439200CB18C2
:403940009B181A78032A10D9032276351A702B782000002B02D0FFF7F5FE01E0FFF7CCFD0121200005F08EFE6AE0019B1B195A78002A02D000225A7002E02000FFF748FC76
:40398000002C04D00121019B1B19597055E008F0C4FC05210700200007F0BEFE0421200007F0BAFE0721200007F0B6FEA121274BC9002933FF331C70254B264A5858264D5E
:4039C00002405A50A0222549D2002E0099502B004436FF36FC3334705C652B00380005275533FF3345351C70FF3508F09AFC1C4B07212F701422200007F0B2FE01233900BB
:403A00003370200001F0DCFE002819D0BAE71221200009F007F8002E07D076352B78002B03D12000FFF78EFE0AE00321200005F029FE200005F09CFB0221200006F02EF8B2
:403A4000F7BDC0466A030020AC0400200807002000000A40770FEBFF0809002088F01400D16200001C2300225843014BC25470474403002070470000F0B585B00E00070034
:403A8000039208F037FD94300378C74A019370237B43D3181900002080242D3108703189C248240208401100A04200D0F1E0B2681A61727A3B335206920F1878D4B2031C8F
:403AC000A04200D9131CDAB2009270227A438A1811003B310B70130001212C3319703F23107C03408020404203431374B04BD85DAD4B002803D00198884200D8BAE07278B6
:403B0000012A00D0B8E0307AC006C00E0138052800D9B1E009F00EF8034E75B0B0A8FF2271891202914200D0A6E0A24AD15D002900D1A1E0702078431A182C3211709E4AE6
:403B4000BD00AA58984E94468A000192002264468518A458AD192C61019C0432A242F6D1009A002A76D170327A43B6187069F27D924D92062840924D520FD606284030431D
:403B8000360E182E00D1009A07263240D20628401043120E283A54425441221D8A4204D27021794359182C310A7070227A439A1850614FE0FF227189120291425CD1814AE0
:403BC000D25D002A58D07020784319182C310A707D49BD006958744E8C4600219200644645186458AD1904312C619142F7D170227A43B6183F22317C0A4040210A433274B7
:403C00003AE072497A00895C042935D9704AB80080587589C6880278AE420DD170257D43043A591992102C310A705F4CD2B2013292000021A44605E080188A1AD1B20029ED
:403C4000E8D119E004318A4204D04E1944586644F460F7E770227A4399183F22087C0240402002430A7407E070227A439A182D32012100E02D32117070227A439B18032244
:403C80006021009C144062015C7C8C4314435C74A8E2504A937AD27A12021A4316D14D4B71899A7ADB7A404D1B021343994200D0F7E170237B43B168ED18296118216B7CF6
:403CC0008B4308390B436B742C3589E273899342E5D1307A3100C206D20E029272683E4C55044209009218226381637A6D0F9343103A13436372009B17325801237A013DAA
:403D0000134003432372029BAD00581E0C31EDB21328C4D809F0CCF81400210068009A00AC00C600E10001012A0147015601C3FF64018801A902C3FFA902C3FF91019A0118
:403D4000002D0CD1254B1B78E360002B00D08EE21F3323610335213B8BE1002D07D01822637A01259343083A134363727FE12200E0230C3203CB03C2194B21001B785B075E
:403D800006D4184B59680902090CC9016131FF3120000822143009F079F800230725E3612362023B65E1C0468C080020C080FFFF340C00202C03002030030020FFFF7FFC53
:403DC000FFFFFFC734030020380300203C0300204003002000110000800300208C0000206C0A0020C0FF0000042DB8D1337B532BB5D1D24B9B6C2361D14B1A78D14BD1B275
:403E000061611B781B020B431A006361CE4B1B781B041343CD4A63611278120613436361CB4B1A78CB4BD1B2A1611B781B020B431A00A361C84B1B781B041343C74AA3619D
:403E4000127812061343A361002312E1042D86D1337B522B83D1C24A0321002008F0C2FB033D0C23002800D003E1BE4B186010E1042D00D073E7327B09234A2A00D0BCE152
:403E80000321E33318780B00084000D0B5E1B44A08F0A8FB0C23002800D0AEE1B24AB14B1A60F6E0042D00D059E7337B0222611D502B08D1CB7F033D934300D0D9E10634DF
:403EC000CA77E577D5E0C87F0323104200D1FBE10023A21DCB77D377F6E1009B5E1EF3B2052B00D93BE7009B062B03D0182D00D035E702E0082D00D031E7182070439B4B38
:403F0000C0B2083018182A0008F0C0FF0122B24097490B8893430B80BBE0042D00D01EE7944B1B7A002B00D019E7337B462B00D015E78F4A1388002B00D09CE1B37B717BDC
:403F400005341B02E07F0B4319B20723002800D1DB183F201080884A0125914200D088E086493B380A7802430A7082E0002D00D0F5E6009B591ECBB2052B00D9EFE6182306
:403F800059430098C9B20822062800D01A002000764B083159180C3008F078FF009B0725062B64D16AE1042D00D0D8E6337B462B00D0D4E60534E27F3F3B002A00D01CE1EF
:403FC00007331AE1042D00D0C9E66D4B347B1B78A34200D110E1012C00D110E107230CE1082D00D0BBE6737B317BB07B1B020B4300041A000300F07B134300061843737C2D
:40400000357CB17C1B022B4309041A000B00F17C1343090619435B4B42189A4200D99EE607F008FB207322E1002D00D097E607F0B9FC2561E060033519E0002D00D08EE660
:40404000EC23E5601B780235237310E0009D013DEBB2012B00D913E107F0A4FC2B01C0330C3419181022200008F010FF052502235B421F2044490A7A8243029802430A724F
:404080009A1C00D1FFE0404A01350233EDB2D360F9E070237B433D4AD31802222D331A70A0E0380008F026FA02903800FDF7D2FB4378DB0600D48BE0354B72899A4200D0CC
:4040C00086E0314CB368A360A023237273685B045B0F012B76D12F4AD25D0092002A71D1727A317A5206520C0A432B498A425DD004DC2A498A420AD0294903E029498A4217
:404100005AD029498A425DD150222272CEE0029B3800C0331B681B6C98470A2108F014FD6B461B7880B223736B4660730005000FA0731B78E3730223B8E0C046FCF0FF0FF3
:4041400078F1FF0F79F1FF0F7AF1FF0F7BF1FF0F7CF1FF0F7DF1FF0F7EF1FF0F7FF1FF0F25B40000640A00204C420000000400208E00002080040020FF0100006C0A00206A
:404180008C000020FFFF0000800300208C080020C6050000340C0020030C000003060000030B0000030E000003100000009BE36004232373023B79E0009BE3603023237391
:4041C0002E3B73E070237B43ED182D35022308E070237B43019AED182D350323012A00D801232B7070237B433B49103359183800039B984705B0F0BD0023012539E7374B78
:404200009A68197B120A0906114326D05A681002000CC20110008030009242189446304A94451AD81A681E79120A36063243904213D8944511D91E7807F0FCF986420CD178
:4042400000988130FF3007F0BFFB002805D1254B1A78AA431A702500F6E50421214A012513780B431370062303E7012501E00225FDE60323FDE601250523FAE60325F6E62D
:4042800001250723F5E67021002279431248164E43182C331D70AD00340008348B181459C31804321C61AA42F6D19BE770227A43AD182A002C321370A2682A61022B00D0BE
:4042C00090E7E3686B618DE71F21227A01258A4319390A432272D6E68C080020C0FF0000FFFF00006C0A00208003002070B505000C0008F012F81C236B43044AD3185A6834
:40430000A2435A6008F00DF870BDC0464403002070B505000C0008F000F81C236B43044AD3185A6814435C6007F0FBFF70BDC0464403002073B504000D00FDF78BFA0600E3
:40434000002D15D0012D73D11C2300216343394A2000D618995496235B007381B57601F001F80223290073702000FFF7D1FF5FE02900200000F0F6FF0121200000F0F2FF71
:40438000472120004A2207F067F9012120004942FFF7ACFF002C0FD1E0220121264BD20099501F311032995080211A6889040A431A60322005F074F9022372781D4D1A406F
:4043C00011D03179200001F009F81C23317963431A484900095AEA1851810121917611730522EA5412E01C236343E95C012902D0EA54EB189A760521200000F0EFFF0222EC
:40440000002300921900200005F00CFE002C08D020000B49FDF7EEFA0A49200000F04AFA06E0200008F066F877300378002BEFD173BDC0464403002000000A4054CF000021
:4044400088130000753A000010B5472902D1BA31FF3103E0482903D18021C900FFF758FF10BD10B5FFF754FF10BD00001C2370B543431C4E0400F3185B78002B30D00021C6
:4044800000F070FF4B224721200007F0E5F8002C1AD1E2238022144DDB00EC501206103BEA500423114A5B42A95820000B40AB5003220F4BEA5000F02FFF200000F0DAFEBC
:4044C0002A680C4B13402B601C2300225C4333195A605A701A739A763255C82292001A81002070BD4403002000000A409C04000094040000FFFFFFFD70234343034A400014
:40450000D3181A8E024BC35AD01870478C0800208408002070B504000D0007F0EBFF943003780422012B00D90C32702363430449C8180833027359182000A84770BDC046F7
:404540008C08002010B50C0007F0D4FF0C21022C0CD0032C04D0614261410423591A05E0943003780421012B00D90C31080010BD70B504000D0007F0BDFF02007D3212784F
:4045800003000320012A05D0D979090901402000FFF7D8FF70236343034AD1180833087399182000A84770BD8C08002070B504000D0007F09FFF702262430C498A1843320F
:4045C00013780E000122002B06D1C179033319402000FFF7B7FF020070236343F11808330A732000F118A84770BDC0468C080020F0B587B0040007F07DFF030075331B78DC
:40460000002B12D05C233F22FF33C35C93431A32FF32C02B05D1855C05206D066D0E454315E0855AAD05AD0D11E083788D4A9B009D581C22130063438B495A5C002A06D098
:40464000062A04D0CB185B899D4200D21D00F0236343864AD318A83300931B789B077CD570236343824AD3184B331B78002B74D180488149A200505004AA961DD71D3370FC
:404680003B705A2D00D25A2501212000FDF7FEF84078642140B2684308F0E0FA774B4019984200D976483200390000F009FD01212000FDF7EBF83B78857801933378102674
:4046C000029307F02AFE03226E4BE8211A556E4B6E4F1D551F236E4D03903E55C9006A5801989A4303401343F0226B50D200AB5890395B005B08AB506A58664B0A201340F7
:40470000029A12021343C5226B500821D200AB580B43AB50604A0739AB580B43AB50AB588B40CB40AB5004F0BBFFE42189006B589B0A9B026B503B5D6A5858010523134353
:4047400003436B50FA23FC229B00EE509200AB581E43AE50039807F0E4FD009B1B781B077ED54E494E4AA300995020000221FDF78DF883782025402B02D801335B10DDB2F0
:40478000FA264078B60040B26421704308F066FA444B80191B784343009307F0BEFD02223A4B0321070020005A7005F011FDF022374CD200A35831005B005B08A3500098C6
:4047C00008F0C2F90A235843812800D88220D626FF22F600A3590A2193438238009308F0B3F9C5220421009BD2001843A051A3580B43A350B932FF32A35803390B43A35085
:40480000A3588B40CB40A350E3229200A3589B0A9B02A350A358002D06D0234A013D13436D01253A154000E014251D43E3230822FC219B00E5505C33E250890063581343DB
:404840006350F82149006058184B03401848034363501031635838001343635007F061FD07B0F0BD5CCF000044030020001100008C080020492200009004002025020000D9
:404880002602000098040020990400208904002000000A40FF00FFFFE4070000192200009C040020A400002005040000FFFFEFFF01004000F7B50E00040007F01BFE0500B0
:4048C00007F02BFD242207001E21200006F0C4FE2B0087331B78002B2CD0A1352D78EDB2002D27D1962120004900FFF781FE2000FCF75CFE2000FCF72FFF002E1AD0702369
:4049000063430E490120CB181A0048321070588E1B8E0191984203D915702000FCF75CFE70236343019A1E21D6502000044BFA2206F016FF380007F0F4FCF7BD8C08002043
:4049400075200000F0B5F0244443234E2034A419230088331B7885B005005B073AD5702343431E4A8E34D3181B8E029323889B199B7801335B10DBB21A1C202B00D920221E
:40498000D7B207F0CAFC0390280007F0B3FD5C233F22FF33C35C9343C02B0ED1280007F0A9FD23880122F6185A236421FF33C35CB25659430097012306E023880122F61869
:4049C00002230299B2560097280005F059FC039807F0A7FC05B0F0BD001100008C080020F0234343F0B5584A85B0D318A8331B780500DB0700D4A5E070234343534AD3183B
:404A00001C8E07F08AFC002103902800FCF73EFF837801335B10DBB21A1C202B00D920220126D3B200934A4B86575A1992780193022A03D10121280005F0CAFB0222019BFA
:404A400044495B199A70444AAB00995030000121424A60439950633108F000F9404B0419A0B2404F404C984213D8404B984200D83F48E6593F4B334002933F4B98420AD865
:404A80000521802608F060F8029BB60180B21E4309E01800E6590A237D21584308F0DEF8364B80B21E40E651D4270A21C83808F04BF8FF00E65900063602360A0643E6519A
:404AC00001262F4A0A20A3583343A350A358B340F340A35004F0E4FDE1239B00E258B243E250E258274B1340009A002A08D0F821254A89001343009A013A52010A4000E04B
:404B00001022E121134389006350FA2302209B00E0506C316358144A03436350019B5D19A87802280BD1F82149005458174B2340174C23435350103153580343535003980F
:404B400007F0EFFB05B0F0BD001100008C08002089040020DD1F0000A4040020A0040020C05D00002C06000000000A406F17000070170000F7FDFFFF28230000F7DDFFFF43
:404B8000D407000001F8FFFF05040000FFFFEFFF01004000F023434370B5214A0400D318A8331B789B0739D507F0B7FB0500FC2010211C4B80001A588A431A50FA220120EF
:404BC00092009950184A99588143802099509958000601439950D621C9005858134A02405A50E42189005858114A02405A50114B1A5D1E00022A03D10421200005F0E8FA2B
:404C0000335D032B03D11921200006F085FD280007F087FB0022084BA400E25070BDC0460011000000000A40E4070000FF00FFFF08FCFFFF9804002090040020F8B57023FC
:404C400043435B4A0400D318002245330D001A7090421DD15B2106F05FFDF822554B5200985855490140A020C0030143022099509958014399509958814399504F4AD17810
:404C8000002905D0E821FF30FF3049005850D470002D02D02000FCF789FCF02501272000654305F0CDFC200004F016F9444B5D19A8352B783B423AD007F02FFB3F4B060020
:404CC0001B199B78022B03D13900200005F080FA0120384B3B4A99588143802099509958000601439950E12189005858364A0240FC205A50022180001A588A431A50FA22EE
:404D0000802092009950314980015A580243C8205A5074315A58C0051202120A02435A5000212B4AA3003000995007F0FAFA0826200005F067FA2000FFF72CFF2B7833425F
:404D400031D007F0EAFAFC211A4B89005A580500B2435A50FA2292009E50FC220120D20099588143802099509958000601439950D621FF20C9005A5882435A50E32189005A
:404D80005858144A02405A500C4B5B78022B03D10321200005F01CFA280007F0C2FA00210D4AA30099502000FCF70AFEF8BDC0468C08002000000A40DFFF0FFF8904002033
:404DC00000110000D407000008F8FFFF2C060000A404002008FCFFFF9C040020F7B504000F0007F09AFA1E2124220190200006F033FC2000FCF7E4FD200005F003FA7023CF
:404E00006343264E2649F3185B8E8B420CD805222000FCF70FFC011E06D12000FFF70EFF142004F03DFC0EE07025654375192A8E6B8E9A4203D0200007F03EF968861849CF
:404E40002000FCF7D7FD7025C8226543920073195A86002F19D0200007F04CFB87300378002B12D02000FCF7B7FB962277510D4D92002B002121200006F072FC2B00012201
:404E80002221200006F06CFC03E001212000FFF7D5FE019807F045FAF7BDC0468C080020881300007520000010B5024B8200D358984710BD9004002010B507F0BBFF0368D6
:404EC0000C2B00D1FEE7064B5B68002B02D0012100209847034A044B5A6004F0F9FCFEE7900400200C3003C000180020F8B517000C0007F0E9FB030067331B78274A012B0C
:404F000036D00021012C01D1882149003C000025D219537B127B5B02520113430B43C022FF211F4ED200B058090101408B4209D0B0581C490140B150B15832200B43B350C9
:404F400004F0AEFBAD239B00F3585A0503D50237002D06D01FE0DB0405D50124002D1AD13F19FCB217E06B425D416D422C4012E0012C0ED1882464008B3001780125890022
:404F8000535C521852785B015202134323430224C5E70024F0E72000F8BDC04684CF000000000A400FF0FFFFB8235B004343144A70B5D218150013005A355B33FF35FF338C
:404FC00029781E78B14219D24B1C5418DBB239342B70FF3424789E4201D8A3B207E0D318023139332970FF331B781B0223435C30044A80008350022004F052FB70BDC04642
:405000000807002000000A4010B507F086F98021FD220E4B0906D2009950D6211024C9005A58A2435A50E52189005C58084A2240FC245A502021A4001A598A431A51FA2237
:405040009200995007F06DF910BDC04600000A4008FCFFFF10B507F060F98021F6220C4B0906D2009950F03A99589950E62189005C58084A2240FC245A504021A4001A590C
:405080008A431A51FA229200995007F04AF910BD00000A4008FCFFFF10B507F03EF9DC210124064BC9005A58A2435A5060315A585F3422435A5007F034F910BD00000A403E
:4050C000F8B5304B0E001B78642158431700962407F03AFDA400A04208D804000A2801D20A2406E08C2804D99F2805D90325232004E01C25962001E018257D20002E00D010
:405100003570002F3CD060430A2107F01DFD0600952C02D8C820001B12E03220C72C0FD92C23FF339C4205D80A21200007F00CFD462304E01421200007F006FD3723181A3E
:4051400010231D4204D1104B1B7858430F4B03E00F4B1B7858430F4B1B785A1E9341DBB2002B00D040420C49081A704307F0ECFC822800DA822082380A2107F06FFD387018
:40518000F8BDC046A4000020A1F2FF0FA0F2FF0FA3F2FF0FA2F2FF0F50C30000F7B50F00040007F0BAF80600B82040006043184B18186B46FC3007663800D8279D1DDC1DE7
:4051C0002A002100FFF77CFF124BFF00D959124A247811402A78E8251204ED0058590A430E4901401F202040400101435951F0210120DA51C9005A58520052085A50A039FF
:405200005A5802435A50300007F08BF8F7BDC0460807002000000A40FFFF00FF1FFCFFFFF8B5B82305005B006B430F48C41826005B36FF36327000265A34FF3426700B4CAF
:40524000AE003619776C0A4C39333C4057033C43FF337464181807F019FE002D02D12800FFF7A2FEF8BDC04608070020FC000A40FF1FFCFF002801D0064A00E0064AA520AA
:40528000064BC000195891431950A421C90000205A507047022022220110111100000A40164A830070B59C18154A05009B18154A0A205A6604F0F4F9A422104BD200002D20
:4052C00001D1114900E01149A5209950104AC000AA401958FC340A431A50B8235B006B4318000C4B80221B1800205933FF331870636E12061343636670BDC04600000A402B
:40530000FC000A404A43052001101111022022220010100108070020B82330B50024C0215B0043430C4A4900D318FC330B4A9C6383009B185D580A4A2A405A501123A72586
:405340008340064AED005159200099435151A621C900535030BDC0460807002000000A40FFFEFFFFF0B58300174E184A184C4000184D002911D1E0279B18FF00D9590E400F
:40538000DE510126370087401159B94311518E215751C9005A58B24312E00C495B18E221C9005F583E405E5002211659814030008843105151518E21C9005858064A024096
:4053C00000205A50F0BDC046FFFFEFFF00000A409C04000094040000FFFEFFFF1E4A83009B18E02210B5D20098581C4C04409C50E2242020E400185107292AD8080007F044
:4054000099FB040C141C1C1F2823D02019598000014319519958102019E098201959C000014319519958082011E0A8201959C000014319519958182009E09958882001E092
:4054400084209958000102E0A0209958800001439950002010BDC04600000A4001E0FFFFDC2330B51449DB00CB58144A144C1A4000280CDB134B45012B401343002801D076
:40548000082213432278002A11D00F4A0BE010231A43FE234042C0039B03034013432278002A04D0094A12780948D2B28265DC22D2008B5030BDC04600000A400700C0FF77
:4054C000A8040020E07F0000A5F2FF0FA4F2FF0F00FF0A40F8B5D025154B8C00E418ED0062510A200F00160004F0DAF80123D221BB400F4A890053500221D423B9409B006B
:40550000D358194213D0002E11DBC1239B00E35860595B079B0F000407D4012B07D1D320800013581943115001E0022BF7D0F8BD00000A400023F0B50C00D02787B0050010
:405540000292059306F0E9FE264BA200D218FF00D35903900193230001201B339840A0232049DB00C850B8235B006B431E4EF3181B19FF335B7D9C46029B5E046346002BFC
:4055800004D0C023DB023340184E04E0C023DB0233408026B6003343E026D3510127760093593B439351A026F6008B59034206D1059BC72B03D8059B01330593F5E7E0230B
:4055C0005B00D658A023DB00C850019A21002800FFF780FF039806F0A4FE360CF0B207B0F0BDC04600000A400807002000020800F7B5070007F068F803006F331E78213376
:405600001B8801AC2380030072331A780500002A04D0244A11680622114240D12A0067321278012A0DD1951BE9B200223800FFF75DFC0022605531003800FFF757FCA055FF
:405640002DE01B78DBB2002B16D0A35D012B05D9012231003800FFF749FCA055A35D012B05D8002231003800FFF740FCA055002270352B78E25412E01D00EEB200223100C9
:405680003800FFF733FC6055002805D0012231003800FFF72BFC60550135022DEDD12088FEBDC046A4000A40C02210B50948D200835804001000002904D1074A1340802206
:4056C000520303E0054A1340802292031343235010BDC04600000A40FFFFBFFFFFFF7FFF70B500282ED1C2201425174CC0002358AB432350154B164DD65C1038154B00294F
:405700000AD16E60022A10D020580340900603431A0000290ED00FE0AE60022AF4D122581340C02212051A4306E0C021225809051A400A43822300E08423DB051A43C023A9
:40574000DB00E25070BDC04600000A4088F2FF0F00FF0A40FFFFFFF3C0218020084BC9005A580006024314205A5010315A5802435A5008395A580C3802435A500020704787
:4057800000000A40C12108200B4BC9005A5882435A50C022D20099580230490049089950995801439950985804490140F0200004014399507047C04600000A40FFFFFFBF5B
:4057C00070B50C0005290CD102221C4DFF322B68080013432B6003F063FF2A68184B13402B60A022A121174B1748D2009850C9005A5802435A50154BA200D258144B1A609D
:40580000052C07D08021134AC902136800200B43136011E00A24104B104E1A681D00324206D0013C0A20E4B203F03AFF002CF2D12B680F203342E5D070BDC046DC000A401D
:40584000FEFEFFFF00000A400001020068CF0000CC000A40C4000A40A4000A4007200000A32010B5184BC0001C58184A22401A50A2229938FF38D200985000290AD114493D
:40588000144A086802400A60A121C9005858124A024011E0012910D10D490E4A086802408020C00102430A60A121C90058580A4A02408020800002435A50A0220749D20065
:4058C0000020995010BDC04600000A407FFEFFFFBC000A40FF80FFFFFFF9F6FB00060904F0B51E4B1E4C1A68B8235B004343E3182533FF331B78002B01D100202DE0002967
:4059000006D11F2308241340072B03D8210001E010240021B8220B0052005043104A10180A19934218DA050006002635FF352A78FC367669920097591A1D0A4E920097515D
:405940002A78013D0132D2B26A706A782D789542D3D90133DBB2E3E70120F0BDA0000A400807002000000A40F7B5A125414BED005959414A04000A405A51A0223F49D200B3
:405980009950B82252004243944601923C4A1E00944460462830FF300278394F52B2002A06DA8020374980015A5802435A505EE0354A12681100354A0A400FD0027800215A
:4059C000013A52B2027080205A59400102435A51019B2B4A20009B58984748E063462633FF331A7001212000FFF77AFF002804D080227359D20213437351A122D200B358E0
:405A000023481C490343B350B8235B001A006243BA182732FF3212780220012A02D14A68024301E04A6882436343FB184A6028331849FF330A681B78002B03D080231B03EE
:405A40001A4301E0144B1A4080239B021A43B8235B005C433F193B0000202933FF3328371870FF373B78013B5BB23B700A600120FEBDC04600000A40FFEFFFFF98F014009A
:405A80000807002004050000A4000A400120000088E00000C4000A40FFFFF7FF0221024A53688B435360704700000A4070B50D0006F020FDC0221D4CD200A1581C4B0B407C
:405AC00010210B43A350002D0AD08B30037819489B001B5CA15858025B0103430B43A350AA239B00E158144A0A200A40E250E25812490E4D0A43E25003F0D2FDAE23702215
:405B00009B00E250B02260219200A3580B43A350AD239B00E258A0235B011A4205D0AF229200AB5840390B43AB5070BD00000A400FF0FFFF84CF0000E8A3FFFF05140000F1
:405B4000F8B500250E490F4B01394A1C14D000221F685C689E68A018B24203D0B858A0500432F8E70200DE68141AA64201D020C2FAE710330139E8E707F062F9FCF77CFB1D
:405B80000100000078D00000F8B5B021B123A44C9B008900E2586358012593436350AE239B00E2509C33E25802231A4213D0903162589A436250D2229200A350D023DB0036
:405BC000E358DB0B9D43974BFC331B6A002B02D0290000209847D5229200A1580422904B114218D0D4208000195891431950D22189005A508C4A9A5880231B021A4053426C
:405C000053415B421D40874BFC335B6A002B02D0290000209847FD239B00E258804D002A00D1C3E01022EB58804F134251D0E426B600AB595B079B0F022B27D1FC2210218D
:405C40009200AB588B43AB50FA239B00E9503B7A591E012903D800203B68984739E0032B37D10121AB5900208B43AB51AB5905318B4305310B43AB51AB5805310B43AB5099
:405C80007A7A6B4B093105F06BFD22E0FA2310229B00EA501921002005F024FD002812D01921002005F038FDFA2310229B00EA50AB590F3A9343AB51AB590D329343093AE0
:405CC0001343AB5105E0FC2210219200AB588B43AB50FD229200A1580822514B11420CD0FC208000195891431950FA2189005A50FB68002B01D000209847FD220121920058
:405D0000A0580A003D69464BAA4002420CD0FC25AD00585990435851FA2080001A507B69002B01D000209847FD229200A15801223B4B11420ED0FC20800019589143195074
:405D4000FA2189005A503B4B1B68002B02D0002108009847FD229200A1582022304B11420ED0F821FA208900800059581A502D4BFC33DB6E002B03D08903C90F0020984787
:405D8000FD229200A1584022254B11420ED0F821FA208900800059581A50224BFC339B6E002B03D04903C90F002098479422CC21D200A25889041A4B0A4206D01E481F4AC7
:405DC0001D582A401A501E4A99509422D200A1580122134B11420DD0174819589143195017495A500F4BFC335B6B002B02D00221002098479422D200A1580222084B114207
:405E00000DD00D481958914319500D495A50054BFC335B6B002B02D0042100209847F8BD00000A40080700208406000090040020A94E00007C0800209C040000FFFFCFFCAC
:405E400094040000F0B50B7889B00293AC235B0043430E004E490792CA18039010000025FC3045650298022800D98FE04D32FF321278012A00D189E003244443E318CC18EE
:405E8000A379444FDBB2069363792A000593802300979B012900300003F0D8F90497A84200D0A571AC24039964006143384D72796B1812074133520FFF331A700323029840
:405EC000D7B25843411869188979002902D00599B9425BD0029930004B4303994C4301211B19EB185A7100229971049B11000093202303F0ABF9002805D02C194434FF3405
:405F00002378012B42D0029B013B012B13D8049B002200930721204B300003F097F9002834D11C4B0122009307211C4B300003F08DF900282AD1AC24039D64006543144F7A
:405F40006A467D192B00127A4233FF331A70049B00220093802311009B01300003F076F9FC350223002800D140236B65079B002B0CD1029A03335343039A54431C196B460F
:405F80001B7E3F19BB716B461B7D7B7109B0F0BD08090020FFFF0000F7FFFEFFFF7FFFFFF0B58BB005000E00170006F08DFB03008133019304001878022811D1731E012B5B
:405FC00009D9002E09D12200823213780133DBB21370052B4DD903204BE0042E49D1FAE7032846D1042EF6D13F223B7A9343402BF1D13900280003F063F9061E34D02700EE
:4060000000237E373E78B200934207D019000D31FF31605803A958500433F5E7280006F05BFB2300FC331B69039A53409B020ED12200113204A9FF320133B34208D201C9C8
:40604000844601CA844509D10133DBB2F5E70023B34203D13A7800209A420AD028000B2103F01CFD002004E02800052106F0DAFC3000002380342370019B18700BB0F0BD33
:4060800070B54E4C00287BD180224D494D484E4BD2000A6018604D4B4D481A6020220A604C4908601A608022236812061343C0222360D200A35808215B005B08A350C1233E
:4060C000DB00E25864208A43E250E25807390A43E25003F0E5FA10222368182113432360D223DB00E258802052005208E250E25880050A43E250DC22D200A1580143032078
:40610000A1503549C8658020A15840050143E020A1506032A15880050143A1502F4908782F4900280FD0C025A0582D062843A05002207C25E2580243E2500133FF33E25875
:406140003E30AA4305E0F2237C250420DB00E258AA430243E2506358FA22AB4303436350D023204DDB00E5501F4B002019001F4EFF31FE33D20048751A83A55188755A83F1
:40618000C023DB00E1581A4A0A40E250E258E250AA229200A158174B0B400121A3505C32A3588B43A3500432A3588B43A350C222D200A35813318B43A35070BD00000A401A
:4061C00080E100E0E5BA00006800002000E100E0895B00005400002000FF0A40A804002094070000000200800807002084060000FFFFF1CFFEFBFFFFAC235B004343F7B522
:406200001F4C1F00E3181A004432FF32019111780500012932D14533FF331E78002303311370052205F018FA032E08D8032307217343DB19E3181A7901320A401A71AC2216
:4062400052006A43A3184A33FF331E70B8235B006B430C49A120CB1800212933FF331970094BC0001E58094931401950A0210848C9005850A358019928009847F7BDC04684
:40628000080900200807002000000A40770FEBFF88F0140010B5040006F016FAA4300268094B1A4205D020001021FFF7A5FF012009E0AC2040006043044B1818FC30406DAA
:4062C000431E9841C0B210BD43C000000809002010B50400081F03282FD806F02BFC022A1E15AC235B006343144AD3184433FF331B78012B21D12000FFF7CCFF00281CD1EA
:406300002000FFF731FB18E0AC235B0063430B4A20219B58200098470FE0AC235B006343064AD318190000225531FF31FC330A705A6520212000FFF75FFF10BD08090020C5
:40634000F0B58BB00400089106F0BEF9AC235B006343B5490500CB181A004532FF321278684600921A004C32FF3212782F0001921A004732FF321288943706926A46128B8E
:4063800082811A004932FF32127856330592069AFF33D20B04923F78069A07972F009537D2053F781B78D20D16000997002B28D0079B012B25D902230293059B002B08D033
:4063C000049B002B05D1049F1A3393427F417B000293009B002B16D02B007D331B78002B0CD101225933FF336343CB184433FF331A7020212000FFF7FFFEA1E1099B012B03
:4064000001D803230293AC235B0019006143864F79184331FF310878012802D10020087002906343FF185637FF373B78DBB2002B00D1C8E0059B002B2BD01A2A08D82B00B8
:4064400098331B78002B03D1784B06990B430393039B1B04D90F049100210191D90F19D05B010BD41A26039B5B041B0F591C71438A4208D25E43961BB6B204E00026039BE8
:406480005B0A5B020393B01C03F096FFC3B2019300E0059E099B9901009B002B0BD12B006635673319782B7809025B0119430D00079B990129430322009B5B485A43AC23E9
:4064C0005B006343D21882181579059A6D02D2031543C2184B32FF32127810331543019A1F18120315430D4320220021380006F0D6FC0022019B05999B00DBB2914209D07F
:406500000499914206D06A469289F3B23A70120A7A700222D3180899DBB29A4205D008780131B8540132D2B2F7E76B4600229888059B93420BD0049B934208D1039B300056
:406540001B041D4303F038FF0122089F80B2AC235B0063433449CB181D63B8235B0063433349CB1819002733FF33FC311A70009B4F6128310870022B05D180212D4AC9002F
:4065800013680B431360009B9A002B4BD2582B4B1A60E0231B012B401A00009B0133190401231343264A0B431360264B0822DD606B469A56B8235B0063431D49CB182833A6
:4065C000FF331A7081E01A00009B002B07D12B00663567331A782B7812025B011A43AC200323009940004B4360430F4D1B18EB181E79019B76021B031E432B184B33FF33B9
:40660000197840230B4333431343019A290096000022B24218D0089DAD580395039F15184D192F610432F4E7080900200080FFFF08070020BC000A4068CF0000C8000A40AF
:40664000AC000A4000000A40AC20400060430A181363B822520062433A4D1030AA1815000918FC3569616846110000792531FF31087000212732FF321170009A022A05D10A
:4066800080203149C0000A6802430A60009A91002E4A89582E4A1160E02212011A401100009A0132100401220A432A4902430A60294A2449D360B8226B46520062431B7A55
:4066C0008A1828325BB2FF321370AC256D00654305F023FE214E012275192B004433FF3307001A702000FFF7D5FD002825D12B004233FF331B78013B012B04D94A35FF35F9
:406700002B78062B16D1009B013B012B12D8AC235B006343F6185636FF363378002B02D0079B012B06D80E4B02220421200005F017F802E02000FFF717F9380005F0F1FDD5
:406740000BB0F0BD08070020BC000A4068CF0000C8000A40AC000A4000000A4008090020D162000070B505000220002D1FD144200F4CFF30265C3538FF38012E17D0562086
:40678000FF30205CA22040002154A52149006254072213404C22FF32A354A3235B00E55202332800E5540499FFF7CAFD280070BD0809002070B504000220002C1CD144204A
:4067C0000E4BFF301D5C3538FF38012D14D05620FF30185CA22040001954A52149005A544C22FF329C54053A9C52023220009C542100FFF7A5FD200070BDC0460809002060
:4068000002000220002A05D1032310005943024B59188A717047C0460809002002000220002A09D10323594342230448FF334118C25410008A710A717047C046080900200B
:40684000F8B5022300285BD105F03EFF03002D4D943329681E782C4A2C4B0A402C49012E07D90C682B4F3C430C6001245968214306E00F68284C3C400C6003245968A143F2
:406880005960822304000100077CDB01134367346631002F22D0070075373F78002F09D12778012F1AD1012E13D97D300078002814D00EE0012E05D906007D363678002E64
:4068C00003D10BE00E78012E08D179300378002B01D1862300E08E23DB01134341220F482B6003681B0C1B041A4323781C020B785B01234313430360094A0A4B1A6000236F
:406900001800F8BDBC000A40FF80FFFF00000A40E8000A4000001080FFFFEF7FC4000A4041004100C0000A4070B504000D0005F0CBFE030001226E3383301A701021057057
:40694000200004F0E9FE2000202106F0D5F80221200006F0C5F870BDF8B504000D1E05D1FFF79CF8954B0F2205215CE001290CD1052104F0D1FE2000FFF78CFC002800D0A0
:406980001AE12000FEF7F0FF16E1022903D1FFF785F8202104E0032906D1FFF77FF808212000FFF729FC07E1042917D1AC235B0043438349CA184532FF321578052D0AD1D9
:4069C000072104F08FFE002800D1F5E029002000FEF7F6FEF0E05B581021EBE0052903D1072104F099FEDAE7062920D1FFF756F8AC235B006343724A0421D318012255334E
:406A0000FF331A702000043204F026FEB821490061436C4B0022C91804312000FFF712FA03222900654B200004F09AFEC4E007295FD1062104F070FEAC235B006343604DA1
:406A4000EB185533FF331B78002B09D0B821490061435C4B0122C91804312000FFF7F2F9AC235B006343EB181A004432FF321278012A16D11A004532FF321278022A10D88B
:406A8000FC335B6D002B04D010212000FFF7B4FB07E02000FFF7FEFB002802D12000FEF763FFAC277F006743EE1933005533FF331B78002B14D0FC36736D002B10D0B821FA
:406AC000490061433F4BE819C91804313430432204F0A6FDEB59716D2000984700237365AC235B005C4300232D195535FF352B7062E008292DD1AC235B001A004243304D4A
:406B0000AA185632FF321278002A05D01A004243AA185832FF3212786343EB181A005632FF321278002A02D05733FF331B7810212000FFF761FBAC235B006343EA181000D5
:406B400000215532FC30FF324165EB581170013130E0092916D11021FFF74EFB0621200004F0DAFDAC235B00634315490020CA1815005B5880215532FC35FF326865C901B0
:406B8000107017E00A2917D11021FFF735FB0621200004F0C1FDAC235B00634308490020CA1815005B5880215532FC35FF3268650902107020009847F8BDC046D162000039
:406BC0000809002008070020F8B50F001500040005F07AFD6E22060008212000AD7804F055FE042F2CD1EB1E1E4F012B01D9102D1DD10821200004F08FFD93239B00634312
:406C0000194A8320FB189918002280001B180A701A70042D06D1813632700521200005F001FF04E0032D02D101230B7018E093239B005C430D4B3F19FF1800233B700FE023
:406C4000032F04D10821200004F066FD08E093239B005C43034B1C19044BE41800232370F8BDC046A80400200B0200000D0200007047000009235843024B181800230372DB
:406C80007047C046FD08002010B5040005F01CFD030072331B78002B0BD0030067331B78012B06D19621C030036849009B682000984710BDF8B506000F0005F005FD0200C2
:406CC00086321378012B0AD10025C830036804001570AB4203D03900300098472560F8BD70B505000E0003292AD105F0EDFC030080228E331B880400520093423DD005D89C
:406D0000002B0ED00022012B39D034E00222FF3293420ED0013293422DD1023A0023FF3A2DE0280005F0F4FE002824D1042605210CE0280005F0ECFE0621002806D01AE09E
:406D400001291FD1212105F06DFE1BE000231A0020006F3002700120424020007030027022007432137116702800FFF7DDFD00236E34237006E0002300E001231A000126A9
:406D80000721E5E770BD10B5102105F0A9FE10BD10B50400102909D1103105F0A1FE09206043054B18180023037104E00F2902D1313105F095FE10BDFD08002010B504002B
:406DC00005F082FC0200094B923213802B3A1278002A00D0064B020090308E321380112103801422200004F037FC10BD0404000002020000F8B5050017000C0005F064FCEF
:406E0000030006008B331F703A0028002100FEF767FC210028003419FEF746FC220002238E32903413702370F8BD0000F8B506000F00012929D105F047FC09237343134A61
:406E40000024D318020005005C709A325C71104B14702100220030009F55FFF7CBFF220039003000FFF7C6FFC82002F019FC2B0067331F70013B1F703000FFF79FFF2B004E
:406E800072356E331C70DC702C70F8BDFD080020340C002070B504000D0005F015FC030067331E78012E16D124331D701A3B1978C9B2002906D12A002000FEF711FC2A009C
:406EC000310002E02A006F3001782000FEF708FC322002F0E5FB70BDF8B5002005F0F4FB030087331B78002B32D0B0217C22194C8900635893436350AE239B00E250030063
:406F000071331D78EDB2002D22D10A3B1E78012E0BD18B300700027829002800FEF7E0FB3A7831002800FEF7DBFBA9200A4A0B4BA15880000B40A3502258094B09491A409C
:406F40000A432250AA229200A05803400B43A350F8BDC04600000A4004060000FFFBFFFFFEFBFFFF10400000F7B5070005F0ACFB030087331B78002B00D1A8E00300010003
:406F800071331B78524C6731012B27D1AE251026B022AD0066519200A3583343AA26A3500978B600A359012900D090E074300078042800D188E007218B4303390B431C3150
:406FC000A3516151A3580B43A350AD239B00E3585B057CD5AF229200A35872E0C026F600A2593C4B134010221343A3510D780021012D69D1A259384B8B301340A351037872
:4070000036499B005B5CA25959025B010B431343A3510A2002F044FBAD2380219B00E3582F4A0193A358C9000B43A350A2592D4B80201340A351A023019A5B011A404001D2
:407040000226824208D0019A13408B4202D12E00013501E0022635000A2002F021FBA92189006258204B680013406350F302625818431E4B134303436350AE237C229B0032
:40708000E250B0220C219200A3580B43A350AD239B00E3580193019A1023022D02D11A4202D00AE01A4208D04023019A022E02D11A420CD001E01A4209D1AF2204219200A3
:4070C000A3580B43A35002E03800FEF7EFFCF7BD00000A40EFFEFFFF1FF1FFFF84CF000004060000FFFFFFFCE8A3FFFF01040000F0B5160087B005AF3980050005F0E4FA48
:40710000092334006B432C4A113CE4B2D3181B19029300230100029A8E319371274B3F5D1A68274B04911A4242D1A023254ADB00D3589B053CD40419230022008E3303930A
:407140001B7890320192BB4209D1019A31001370280004F0E1FA0123029A937128E0019B1B78BB421AD00300713319788C2201290DD1010074310978032908D81B78813AB9
:40718000012B04D167300378012B00D1093A31002800903404F07AFB277009E03100280004F0A0FA002803D1019B039A1B781370049B188807B0F0BDFD080020A4000A408E
:4071C0000720000000000A40F0B58BB0040005F07BFA0490200005F077FA03006E331B780500DBB2029303007A331E78F6B2002E00D0A2E046331F683D3B1B780593030044
:407200006F331B7820000693FEF7F2F96B4618802B0082B28C331A8001230793059B032B0BD081B211222000FFF762FF6B46122219882000FFF75CFF07966B461978009BCA
